:03000000021119D1
:0C111900787FE4F6D8FD75815902108D36
:100F5F00D2BABEA7CFD4CABEB2E2CAD4C6C1C4BB2E
:100F6F00B7D6B1E6C2CA3A3136302A3132380D0A15
:0F0F7F0050473136303132382E2E2E4F4B210055
:10108D00C2A1120EF97BFF7A0F795FE4F50DF50E13
:07109D00FDFC12098980FE31
:1000030000000000000000000000000000000000ED
:10001300000000183C3C3C181800181800000000B1
:10002300000000666666000000000000000000009B
:1000330000000036367F3636367F36360000000045
:100043000018183C666030180C06663C181800004F
:10005300000070D8DA760C18306E5B1B0E000000BF
:10006300000000386C6C38606F66663B000000006F
:100073000000001818180000000000000000000035
:100083000000000C1818303030303018180C000005
:100093000000003018180C0C0C0C0C181830000061
:1000A3000000000000361C7F1C360000000000002A
:1000B300000000000018187E18180000000000005F
:1000C300000000000000000000001C1C0C180000D1
:1000D300000000000000007E00000000000000009F
:1000E300000000000000000000001C1C00000000D5
:1000F30000000006060C0C18183030606000000089
:100103000000001E333737333B3B331E0000000033
:100113000000000C1C7C0C0C0C0C0C0C00000000F0
:100123000000003C6666060C1830607E000000008C
:100133000000003C6666061C0666663C0000000084
:100143000000003030363636667F060600000000B9
:100153000000007E6060607C06060C7800000000F2
:100163000000001C18307C666666663C00000000D8
:100173000000007E060C0C18183030300000000020
:100183000000003C6666763C6E66663C000000003C
:100193000000003C666666663E0C183800000000EE
:1001A30000000000001C1C0000001C1C00000000DC
:1001B30000000000001C1C0000001C1C0C180000A8
:1001C300000000060C18306030180C060000000018
:1001D3000000000000007E007E0000000000000020
:1001E3000000006030180C060C183060000000009E
:1001F3000000003C66660C18180018180000000088
:100203000000007EC3C3CFDBDBCFC07F0000000054
:10021300000000183C6666667E66666600000000A5
:100223000000007C6666667C6666667C00000000F3
:100233000000003C666660606066663C000000008B
:10024300000000786C66666666666C7800000000E5
:100253000000007E6060607C6060607E00000000E3
:100263000000007E6060607C6066663E0000000007
:100273000000003C666660606E66663E000000003B
:10028300000000666666667E6666666600000000BD
:100293000000003C181818181818183C000000003B
:1002A30000000006060606060666663C000000001F
:1002B30000000066666C6C786C6C6666000000007B
:1002C30000000060606060606060607E00000000AD
:1002D3000000006363776B6B6B6363630000000074
:1002E3000000006363737B6F676363630000000058
:1002F3000000003C666666666666663C00000000B9
:100303000000007C6666667C606060600000000040
:100313000000003C666666666666663C0C06000086
:100323000000007C6666667C6C6666660000000002
:100333000000003C666030180C06663C00000000BC
:100343000000007E1818181818181818000000006C
:1003530000000066666666666666663C000000002E
:100363006666663C0000000066663C1800000000FC
:100373000000006363636B6B6B363636000000006E
:1003830000000066663418182C66666600000000DC
:10039300000000666666663C181818180000000026
:1003A3000000007E06060C183060607E000000002E
:1003B3000000003C303030303030303030303C3CA6
:1003C3000000006060303018180C0C0606000000B6
:1003D3000000003C0C0C0C0C0C0C0C0C0C0C3C3CEE
:1003E30000183C6600000000000000000000000050
:1003F3000000000000000000000000000000FFFFFC
:100403000038180000000000000000000000000099
:1004130000000000003C06063E66663E0000000049
:1004230000000060607C66666666667C0000000013
:1004330000000000003C66606060663C0000000055
:1004430000000006063E66666666663E0000000023
:1004530000000000003C66666666663E0000000021
:100463000000001E3030307E00000000000000005D
:1004730000000000003E66666666663E06067C7CFB
:1004830000000060607C66666666666600000000C9
:1004930000001818007818181818187E00000000BB
:1004A30000000C0C003C0C0C0C0C0C0C0C0C7878A5
:1004B300000000606066666C786C66660000000091
:1004C30000000078181818181818187E000000008B
:1004D30000000000007E6B6B6B6B6B630000000021
:1004E30000000000007C6666666666660000000029
:1004F30000000000003C66666666663C0000000083
:1005030000000000007C66666666667C6060606072
:1005130000000000003E66666666663E0606060646
:100523000000000000666E70606060600000000004
:1005330000000000003E60603C06067C00000000F6
:1005430000000030307E30303030301E00000000BC
:1005530000000000006666666666663E00000000F6
:10056300000000000066666666663C180000000036
:100573000000000000636B6B6B6B363600000000FD
:10058300000000000066663C183C66660000000040
:1005930000000000006666666666663C0C18F0F0B4
:1005A30000000000007E060C1830607E0000000092
:1005B300000000001818183060301818180C0000DC
:1005C30000000018181818181818181818181818F0
:1005D300000000301818180C060C1818183000000A
:1005E30000000000000071DB8E000000000000002E
:1005F300000000000000000000001C1C00000000C0
:10060300A87D00007FFC7FFC7FFC7FFC7FFC7FFCE0
:100613007FFC7FFC7FFC7FFC7FFC7FFC7FFC00007A
:100623000000D2BA4040202027FE09208920527CB6
:10063300524416A82B982250E220223022502288BE
:10064300230E2204BEA700000FF008100FF00810BD
:100653000FF0081000007E7E42427E7E42424242FC
:100663007E7E42420000CFD400001FF010101FF026
:1006730010101FF0044004404448244814501460F0
:100683000440FFFE00000000CABE00001FF8000087
:10069300000000007FFE010001001120111021085D
:1006A300410C8104010005000200B2E2400227C2AE
:1006B30024428452455255521552255225522552F1
:1006C300C552410242824242444A4804CAD40020ED
:1006D30040282024302427FE0020E02027E021208A
:1006E30021102110210A29CA360620020000C6C1A2
:1006F3003FFC200420043FFC241022202FFC222056
:1007030022203FFE22202220442044208820102043
:10071300C4BB0440FFFE04401FF010101FF0101074
:100723001FF00200FFFE09101FE82926C9240960F3
:100733000100B7D608800C80084010201030201824
:10074300400E9FE40420042004200420082010A06D
:1007530020404000B1E620901088FEFE008446C68B
:100763002AA8FE8012FE10907C90117E2110221088
:10077300421084100810C2CA020001007FFE41002B
:10078300222817D004801110224847C40120FEFEFE
:100793000100010001000100C4EA08800FFC108081
:1007A300108020804FF88880088008800880FFFE32
:1007B30000800080008000800080D4C207F0041015
:1007C3000410041007F004100410041007F00410C0
:1007D300081008101010205040200000C8D5000059
:1007E3001FF010101010101010101FF01010101028
:1007F3001010101010101FF0101000000000C0F9AE
:10080300A4B0999282F880908883C6A1868EBF7F18
:01081300FFE5
:100FBD00E4FEEEC39F5021E4FDEDC394C87480940C
:100FCD00805012E4FCECC394A57480948050030C03
:080FDD0080F30D80E40E80DAC0
:010FE50022E9
:10102F00E4FDFCC3ED9FEC9E5016E4FBEBC3947103
:10103F007480948050030B80F30DBD00010C80E38E
:01104F00227E
:100F2F00EB60047E0080027EFFAB06EF2470601141
:100F3F0024F0601224F0601324307013ED6BF580F1
:100F4F0022ED6BF59022ED6BF5A022ED6BF5B02243
:100E4200EF2470601824F0602024F06028243070B1
:100E52002FEDF45580FFE5806D4FF58022EDF455BE
:100E620090FFE5906D4FF59022EDF455A0FFE5A0BF
:100E72006D4FF5A022EDF455B0FFE5B06D4FF5B022
:010E8200224D
:100E8300EF2470601724F0601E24F0602524307076
:100E93002CE5805D60037F01227F0022E5905D6089
:100EA300037F01227F0022E5A05D60037F01227F93
:100EB3000022E5B05D60037F01227F00227F0022D4
:10105000EF2470600F24F0600E24F0600D243070D7
:101060000CAF8022AF9022AFA022AFB0227F00222F
:040C6A008F218D2227
:100C6E00E4F52378247C00FD7BFF7A087901FE7F72
:100C7E00131208E4AF22D3EF942F7480948040189F
:100C8E00E52224D0F523D3EF944074809480401E47
:100C9E0074F92523F5238016E52224D2600804700A
:100CAE000A75231080087523118003752312E52120
:100CBE002470601524F0601A24F0601F2430702315
:100CCE0074242523F8E6F5802274242523F8E6F50E
:100CDE00902274242523F8E6F5A02274242523F807
:030CEE00E6F5B078
:010CF10022E0
:10100B008B44854751AB461210EF7F077E001210C1
:10101B002F854855AB46AD45AF441210FD7F077E7B
:04102B000002102F80
:0E10EF00AC037B01120F2FAF04AD51020C6A4F
:0E10FD00AC037B01120F2FAF04AD55020C6A3D
:100EC3008F568D57E50024FE601204701F8B51ABC3
:100ED300577D01AF561210EF75000222855955ABAD
:100EE300577D02AF561210FD75000122E4FB7DFF12
:060EF300AF56120F2F2282
:040FE600AD38AF373C
:100FEA00AE07AC03AA05E54D7006FB7DFF020F2F85
:100FFA00AF06AD047B01120F2FAF02AD4C120C6A83
:01100A0022C3
:100AE7008F378D388B398A3A893BE50024FE602D94
:100AF70014604414605B146072147003020B8C243E
:100B0700056003020BA6853C4CAB39AA3AA93B12F8
:100B1700090AF54D7B01120FE675000222853D4C4F
:100B2700AB39AA3AA93B900001120923F54D7B0284
:100B3700120FE675000322853E4CAB39AA3AA93B52
:100B4700900002120923F54D7B04120FE67500048D
:100B570022853F4CAB39AA3AA93B900003120923DF
:100B6700F54D7B08120FE67500052285404CAB3921
:100B7700AA3AA93B900004120923F54D7B10120FE6
:100B8700E67500062285414CAB39AA3AA93B90008D
:100B970005120923F54D7B20120FE675000122E4AB
:090BA700FB7DFFAF37120F2F2276
:020F8E00AA07B0
:100F90007B017DFF120F2F121050A907E9F4601991
:100FA0007F147E0012102FAF02121050EFF470F772
:0C0FB000AF027B017DFF120F2FE9F4FF60
:010FBC002212
:1010A4007590FFD2A0C2A3AF907E00D2A3530703D2
:0510B400EF640370EB86
:0110B9002214
:1010CF00AD07AC061210A4C2A08D90C2A2D2A2226C
:1010DF00AD07AC061210A4D2A08D90C2A2D2A2224C
:0E110B00AB05AA041210CFAF03AE020210DF34
:08107000FD7C007B247A00FEE8
:101078008D828C831210CFAF82AE831210CFAF0354
:05108800AE020210DFC2
:100DEA007B247A00E4FDFCFFFE1210787FB07E00BF
:100DFA001210DFE4F50BF50AF509F508E4FF7E5059
:100E0A00FDFCAB0BAA0AA909A808C3120962502162
:100E1A00E4FFFE1210CFE4FAF9F8E50B2401F50B12
:100E2A00EA350AF50AE93509F509E83508F50880C9
:080E3A00CB7FB27E000210DF45
:100EF900C2A1D2A0D2A2D2A37F907E001210DF7B22
:100F0900427A00E4FDFCFFFE1210780BE4FDFC7F41
:100F190014FE1210787F807E001210DF7F987E0009
:060F29001210DF020DEAC8
:080BB0008A188B198D828C83D9
:100BB800751EFF751F067520037C007DA012095065
:100BC800EF2582F51DEE3583F51CE4F51AF51BE5D6
:100BD8001CAF1D121070AE18AF197C007D221209CF
:100BE80050AB1EE5202FF9E51F3EFAE92402F9E48F
:100BF8003AFAE51B25E0FFE51A33FEE92FF9EA3E4C
:100C0800FA12090AFF7E007DC012110BAE18AF1947
:100C18007C007D22120950AB1EE5202FF9E51F3E0E
:100C2800FAE51B25E0FFE51A33FEEF2403FFE43E57
:100C3800FEE92FF9EA3EFA12090AFF7E007DC41286
:100C4800110B7414251DF51DE4351CF51C051BE559
:100C58001B7002051AC39410E51A94005003020B86
:010C6800D7B4
:010C69002268
:080D74008A188B198D828C8313
:100D7C007C007DA0120950EF2582F51DEE3583F520
:100D8C001CE4F51AF51BE51CAF1D121070E519C417
:100D9C00F8540FC868FFE518C454F048FE74032FCC
:100DAC00F58274003EF583E582251BF582E58335DB
:100DBC001AF583E493FF3395E0FE7DC07C0012119D
:100DCC000B7414251DF51DE4351CF51C051BE51BCA
:0D0DDC007002051AC39410E51A940040A996
:010DE90022E7
:060CF2008B188A19891A13
:100CF800E4F51BF51C751DFF751E06751F03AB1D5E
:100D0800AA1EA91F851C82851B83742212097812CA
:100D18000923FFD3948074809480404CAB18AA199F
:100D2800A91A12090A6F702FAE1BAF1CFC7D221284
:100D38000950AB1DE51F2FF9E51E3EFA9000011280
:100D48000923FFAB18AA19A91A900001120923B5A3
:100D58000705AE1BAF1C22051CE51C7002051BD342
:0B0D6800940EE51B94004096E4FEFF93
:010D7300225D
:0A0989008B088A09890A8C0B8D0C7B
:10099300E4F513F514F515F516F5177515FF75162A
:1009A30006751703F50F1210BA8F10E50FC39510D4
:1009B3004003020AE6AB08AA09A90A12090AD3945A
:1009C30080748094804070E50C2402FFE4350BFEB4
:1009D300D3EF9410EE94004009E4F50BF50CF50DFC
:1009E300F50EE50E2402FFE4350DFED3EF9414EE6D
:1009F300940040107402250CF50CE4350BF50BE460
:100A0300F50DF50E120CF28E118F12AB12AA11AD69
:100A13000EAC0DAF0CAE0B120BB07402250EF50E1F
:100A2300E4350DF50D7402250AF50AE43509F509D7
:100A3300050F050F0209AEAB08AA09A90A12090A94
:100A4300FFB40D247402250CF50CE4350BF50BE50E
:100A53000C2402FDE4350BFCC3ED9410EC94004030
:100A630072E4F50BF50C806BEFB40A08E4F50DF5B1
:100A73000E048061E50C2401FFE4350BFED3EF94F3
:100A830010EE94004009E4F50BF50CF50DF50EE5B9
:100A93000E2401FFE4350DFED3EF9414EE940040D1
:100AA300107402250CF50CE4350BF50BE4F50DF58C
:100AB3000E12090A24E0F512E434FFF511AB12FA21
:100AC300AD0EAC0DAF0CAE0B120D74050EE50E7032
:100AD30002050D7401250AF50AE43509F509050F28
:030AE3000209AE57
:010AE60022ED
:10081400E709F608DFFA8046E709F208DFFA803EC6
:1008240088828C83E709F0A3DFFA8032E309F608B3
:10083400DFFA8078E309F208DFFA807088828C831B
:10084400E309F0A3DFFA806489828A83E0A3F608CF
:10085400DFFA805889828A83E0A3F208DFFA804CA9
:1008640080D280FA80C680D4806980F28033801080
:1008740080A680EA809A80A880DA80E280CA8033E9
:1008840089828A83ECFAE493A3C8C582C8CCC58361
:10089400CCF0A3C8C582C8CCC583CCDFE9DEE78031
:1008A4000D89828A83E493A3F608DFF9ECFAA9F0B0
:1008B400EDFB2289828A83ECFAE0A3C8C582C8CC06
:1008C400C583CCF0A3C8C582C8CCC583CCDFEADE1F
:1008D400E880DB89828A83E493A3F208DFF980CC81
:1008E40088F0EF60010E4E60C388F0ED2402B4047A
:1008F4000050B9F582EB2402B4040050AF23234521
:06090400822390086473D9
:10090A00BB010689828A83E0225002E722BBFE02EB
:09091A00E32289828A83E493221E
:10092300BB010CE58229F582E5833AF583E0225089
:1009330006E92582F8E622BBFE06E92582F8E222D3
:0D094300E58229F582E5833AF583E49322ED
:10095000EF8DF0A4A8F0CF8CF0A428CE8DF0A42EBB
:02096000FE2275
:10096200EB9FF5F0EA9E42F0E99D42F0EC6480C80C
:0609720064809845F022AC
:10097800F5F0C582A4C582C5F0C583A42583F58397
:01098800224C
:1010BA00E4FFFE12090A600C0FEF70010E09E970D5
:0510CA00F20A80EF2294
:00000001FF
