:03000000020FE20A
:0C0FE200787FE4F6D8FD75815F021029CD
:10000E0000000000000000000000000000000000E2
:10001E00000000183C3C3C181800181800000000A6
:10002E000000006666660000000000000000000090
:10003E0000000036367F3636367F3636000000003A
:10004E000018183C666030180C06663C1818000044
:10005E00000070D8DA760C18306E5B1B0E000000B4
:10006E00000000386C6C38606F66663B0000000064
:10007E00000000181818000000000000000000002A
:10008E000000000C1818303030303018180C0000FA
:10009E000000003018180C0C0C0C0C181830000056
:1000AE000000000000361C7F1C360000000000001F
:1000BE00000000000018187E181800000000000054
:1000CE00000000000000000000001C1C0C180000C6
:1000DE00000000000000007E000000000000000094
:1000EE00000000000000000000001C1C00000000CA
:1000FE0000000006060C0C1818303060600000007E
:10010E000000001E333737333B3B331E0000000028
:10011E000000000C1C7C0C0C0C0C0C0C00000000E5
:10012E000000003C6666060C1830607E0000000081
:10013E000000003C6666061C0666663C0000000079
:10014E000000003030363636667F060600000000AE
:10015E000000007E6060607C06060C7800000000E7
:10016E000000001C18307C666666663C00000000CD
:10017E000000007E060C0C18183030300000000015
:10018E000000003C6666763C6E66663C0000000031
:10019E000000003C666666663E0C183800000000E3
:1001AE0000000000001C1C0000001C1C00000000D1
:1001BE0000000000001C1C0000001C1C0C1800009D
:1001CE00000000060C18306030180C06000000000D
:1001DE000000000000007E007E0000000000000015
:1001EE000000006030180C060C1830600000000093
:1001FE000000003C66660C1818001818000000007D
:10020E000000007EC3C3CFDBDBCFC07F0000000049
:10021E00000000183C6666667E666666000000009A
:10022E000000007C6666667C6666667C00000000E8
:10023E000000003C666660606066663C0000000080
:10024E00000000786C66666666666C7800000000DA
:10025E000000007E6060607C6060607E00000000D8
:10026E000000007E6060607C6066663E00000000FC
:10027E000000003C666660606E66663E0000000030
:10028E00000000666666667E6666666600000000B2
:10029E000000003C181818181818183C0000000030
:1002AE0000000006060606060666663C0000000014
:1002BE0000000066666C6C786C6C66660000000070
:1002CE0000000060606060606060607E00000000A2
:1002DE000000006363776B6B6B6363630000000069
:1002EE000000006363737B6F67636363000000004D
:1002FE000000003C666666666666663C00000000AE
:10030E000000007C6666667C606060600000000035
:10031E000000003C666666666666663C0C0600007B
:10032E000000007C6666667C6C66666600000000F7
:10033E000000003C666030180C06663C00000000B1
:10034E000000007E18181818181818180000000061
:10035E0000000066666666666666663C0000000023
:10036E006666663C0000000066663C1800000000F1
:10037E000000006363636B6B6B3636360000000063
:10038E0000000066663418182C66666600000000D1
:10039E00000000666666663C18181818000000001B
:1003AE000000007E06060C183060607E0000000023
:1003BE000000003C303030303030303030303C3C9B
:1003CE000000006060303018180C0C0606000000AB
:1003DE000000003C0C0C0C0C0C0C0C0C0C0C3C3CE3
:1003EE0000183C6600000000000000000000000045
:1003FE000000000000000000000000000000FFFFF1
:10040E00003818000000000000000000000000008E
:10041E0000000000003C06063E66663E000000003E
:10042E0000000060607C66666666667C0000000008
:10043E0000000000003C66606060663C000000004A
:10044E0000000006063E66666666663E0000000018
:10045E0000000000003C66666666663E0000000016
:10046E000000001E3030307E000000000000000052
:10047E0000000000003E66666666663E06067C7CF0
:10048E0000000060607C66666666666600000000BE
:10049E0000001818007818181818187E00000000B0
:1004AE0000000C0C003C0C0C0C0C0C0C0C0C78789A
:1004BE00000000606066666C786C66660000000086
:1004CE0000000078181818181818187E0000000080
:1004DE0000000000007E6B6B6B6B6B630000000016
:1004EE0000000000007C666666666666000000001E
:1004FE0000000000003C66666666663C0000000078
:10050E0000000000007C66666666667C6060606067
:10051E0000000000003E66666666663E060606063B
:10052E000000000000666E706060606000000000F9
:10053E0000000000003E60603C06067C00000000EB
:10054E0000000030307E30303030301E00000000B1
:10055E0000000000006666666666663E00000000EB
:10056E00000000000066666666663C18000000002B
:10057E000000000000636B6B6B6B363600000000F2
:10058E00000000000066663C183C66660000000035
:10059E0000000000006666666666663C0C18F0F0A9
:1005AE0000000000007E060C1830607E0000000087
:1005BE00000000001818183060301818180C0000D1
:1005CE0000000018181818181818181818181818E5
:1005DE00000000301818180C060C181818300000FF
:1005EE0000000000000071DB8E0000000000000023
:1005FE00000000000000000000001C1C00000000B5
:10060E00A87D00007FFC7FFC7FFC7FFC7FFC7FFCD5
:10061E007FFC7FFC7FFC7FFC7FFC7FFC7FFC00006F
:10062E000000D2BA4040202027FE09208920527CAB
:10063E00524416A82B982250E220223022502288B3
:10064E00230E2204BEA700000FF008100FF00810B2
:10065E000FF0081000007E7E42427E7E42424242F1
:10066E007E7E42420000CFD400001FF010101FF01B
:10067E0010101FF0044004404448244814501460E5
:10068E000440FFFE00000000CABE00001FF800007C
:10069E00000000007FFE0100010011201110210852
:1006AE00410C8104010005000200B2E2400227C2A3
:1006BE0024428452455255521552255225522552E6
:1006CE00C552410242824242444A4804CAD40020E2
:1006DE0040282024302427FE0020E02027E021207F
:1006EE0021102110210A29CA360620020000C6C197
:1006FE003FFC200420043FFC241022202FFC22204B
:10070E0022203FFE22202220442044208820102038
:10071E00C4BB0440FFFE04401FF010101FF0101069
:10072E001FF00200FFFE09101FE82926C9240960E8
:10073E000100B7D608800C80084010201030201819
:10074E00400E9FE40420042004200420082010A062
:10075E0020404000B1E620901088FEFE008446C680
:10076E002AA8FE8012FE10907C90117E211022107D
:10077E00421084100810C2CA020001007FFE410020
:10078E00222817D004801110224847C40120FEFEF3
:10079E000100010001000100C4EA08800FFC108076
:1007AE00108020804FF88880088008800880FFFE27
:1007BE0000800080008000800080D4C207F004100A
:1007CE000410041007F004100410041007F00410B5
:1007DE00081008101010205040200000C8D500004E
:1007EE001FF010101010101010101FF0101010101D
:0E07FE001010101010101FF01010000000005E
:101441007590FFD2A0C2A3AF907E00D2A353070331
:05145100EF640370EBE5
:011456002273
:10146C00AD07AC06121441C2A08D90C2A2D2A2222A
:10147C00AD07AC06121441D2A08D90C2A2D2A2220A
:0E148C00AB05AA0412146CAF03AE0202147C6E
:08140D00FD7C007B247A00FE47
:101415008D828C8312146CAF82AE8312146CAF0371
:05142500AE0202147C80
:10122C007B247A00E4FDFCFFFE1214157FB07E00D7
:10123C0012147CE4F54AF549F548F547E4FF7E5075
:10124C00FDFCAB4AAA49A948A847C3120EB95021C4
:10125C00E4FFFE12146CE4FAF9F8E54A2401F54AAD
:10126C00EA3549F549E93548F548E83547F5478009
:08127C00CB7FB27E0002147C5E
:10136100C2A1D2A0D2A2D2A37F907E0012147C7B14
:10137100427A00E4FDFCFFFE1214150BE4FDFC7F34
:1013810014FE1214157F807E0012147C7F987E005B
:0613910012147C02122C74
:080F28008A578B588D828C83DF
:100F3000755DFF755E06755F0E7C007DA0120EA7C5
:100F4000EF2582F55CEE3583F55BE4F559F55AE55E
:100F50005BAF5C12140DAE57AF587C007D22120EB1
:100F6000A7AB5DE55F2FF9E55E3EFAE92402F9E4FF
:100F70003AFAE55A25E0FFE55933FEE92FF9EA3E52
:100F8000FA120E61FF7E007DC012148CAE57AF586E
:100F90007C007D22120EA7AB5DE55F2FF9E55E3E7A
:100FA000FAE55A25E0FFE55933FEEF2403FFE43E5E
:100FB000FEE92FF9EA3EFA120E61FF7E007DC412AF
:100FC000148C7414255CF55CE4355BF55B055AE51F
:100FD0005A70020559C39410E55994005003020F4A
:010FE0004FC1
:010FE10022ED
:0810F0008A578B588D828C8316
:1010F8007C007DA0120EA7EF2582F55CEE3583F506
:101108005BE4F559F55AE55BAF5C12140DE558C47C
:10111800F8540FC868FFE557C454F048FE740E2F02
:10112800F58274003EF583E582255AF582E583351C
:1011380059F583E493FF3395E0FE7DC07C001214DB
:101148008C7414255CF55CE4355BF55B055AE55A4F
:0D11580070020559C39410E559940040A998
:011165002267
:06106E008B578A588959D6
:10107400E4F55AF55B755CFF755D06755E0EAB5C59
:10108400AA5DA95E855B82855A837422120ECF12F3
:101094000E7AFFD3948074809480404CAB57AA5846
:1010A400A959120E616F702FAE5AAF5BFC7D2212EC
:1010B4000EA7AB5CE55E2FF9E55D3EFA90000112E8
:1010C4000E7AFFAB57AA58A959900001120E7AB5AF
:1010D4000705AE5AAF5B22055BE55B7002055AD388
:0B10E400940EE55A94004096E4FEFFD5
:0110EF0022DE
:0A0D03008B478A4889498C4A8D4BC2
:100D0D00E4F552F553F554F555F5567554FF7555F3
:100D1D000675560EF54E1214578F4FE54EC3954F6F
:100D2D004003020E60AB47AA48A949120E61D39445
:100D3D0080748094804070E54B2402FFE4354AFEB8
:100D4D00D3EF9410EE94004009E4F54AF54BF54CC1
:100D5D00F54DE54D2402FFE4354CFED3EF9414EE32
:100D6D00940040107402254BF54BE4354AF54AE4E6
:100D7D00F54CF54D12106E8E508F51AB51AA50ADF2
:100D8D004DAC4CAF4BAE4A120F287402254DF54DAC
:100D9D00E4354CF54C74022549F549E43548F548E0
:100DAD00054E054E020D28AB47AA48A949120E6102
:100DBD00FFB40D247402254BF54BE4354AF54AE595
:100DCD004B2402FDE4354AFCC3ED9410EC94004035
:100DDD0072E4F54AF54B806BEFB40A08E4F54CF577
:100DED004D048061E54B2401FFE4354AFED3EF94B9
:100DFD0010EE94004009E4F54AF54BF54CF54DE540
:100E0D004D2401FFE4354CFED3EF9414EE940040D5
:100E1D00107402254BF54BE4354AF54AE4F54CF5D3
:100E2D004D120E6124E0F551E434FFF550AB51FA4B
:100E3D00AD4DAC4CAF4BAE4A1210F0054DE54D70BB
:100E4D0002054C74012549F549E43548F548054E30
:030E5D00020D285B
:010E6000226F
:1012DB00C8D500D2BB00B6FE00C800CBC400CEE51B
:1012EB0000C1F9002563256300D0C7C6DA2573005A
:1012FB00445331333032B2E2CAD40032303132C4CB
:10130B00EA3037D4C23238C8D5003033CAB13132A3
:0E131B00B7D63030C3EB00D0C7C6DAC1F90038
:1013EE00C18901220007400C07071C030C000E23C5
:0E13FE0012DB12DE12E112E412E612E912EC2A
:0400030000000022D7
:10128400E4FEC2B1C2B0D2B2FDEDC394087480943E
:1012940080501BEF540164017004D2B08002C2B0CC
:1012A400D2B1120003C2B1EFC313FF0D80DBE4FD22
:1012B400EDC39408748094805014EEC313FEC2B13D
:1012C40012000330B003430680D2B10D80E2C2B1F4
:0612D400C2B0C2B2AF0679
:0112DA0022F1
:1011D100C2B1C2B0D2B27E01EEC3940874809480D1
:1011E100501BEF540164017004D2B08002C2B0D22E
:1011F100B1120003C2B1EFC313FF0E80DBE4FEEEB8
:10120100C3940874809480501BED540164017004F0
:10121100D2B08002C2B0D2B1120003C2B1EDC31389
:0A122100FD0E80DBC2B1C2B0C2B204
:01122B0022A0
:10132900E4F547C3E5479407748094805029E5475D
:1013390025E0FFC3748C9FFF74402547F8E6FE75CE
:10134900F00A84C454F0FDEE75F00A84E5F02DFD31
:07135900120000054780CCE3
:01136000226A
:10139700E4FCECC39407748094805023EC25E0FFB1
:1013A700C3748D9FFF121284EFC4540F75F00AA403
:0F13B700FEEF540F2EFE74402CF8A6060C80D3C8
:0113C6002204
:100B6800754AFF754B12754CEFE54075F00A842401
:100B780030F54DE54075F00A84E5F02430F54E7BFC
:100B8800007A0079311208687B007A007931754C57
:100B980000754D027D037C00120D03754AFF754BED
:100BA80012754CEFE54275F00A842430F54DE542A4
:100BB80075F00A84E5F02430F54E7B007A0079312F
:100BC8001208687B007A007931754C00754D067DF6
:100BD800037C00120D03754AFF754B12754CEFE547
:100BE8004375F00A842430F54DE54375F00A84E531
:100BF800F02430F54E7B007A0079311208687B00CA
:100C08007A007931754C00754D0A7D037C00120D10
:100C180003754AFF754B12754CEFE54475F00A846D
:100C28002430F54DE54475F00A84E5F02430F54E9E
:100C38007B007A0079311208687B007A0079317577
:100C48004C00754D027D067C00120D03754AFF7538
:100C58004B12754CEFE54575F00A842430F54DE5E7
:100C68004575F00A84E5F02430F54E7B007A00796A
:100C7800311208687B007A007931754C00754D0691
:100C88007D067C00120D03754AFF754B12754CEFFB
:100C9800E54675F00A842430F54DE54675F00A847A
:100CA800E5F02430F54E7B007A0079311208687B34
:100CB800007A007931754C00754D0A7D067C00126A
:100CC8000D03754AFF754B12754CF4E54125E02478
:100CD80021F8E6FE08E6AA06754DFF8A4EF54F7B19
:100CE800007A0079311208687B007A007931754CF6
:0B0CF80000754D087D097C00020D0313
:10116600121361758901758CB0758A3CD28CD2A92F
:10117600D2AF7BFF7A1279FB754C00754D04E4FD06
:10118600FC120D037BFF7A137906E4F54CF54D7DD1
:1011960003FC120D037BFF7A137915754C00754D10
:1011A600027D067C00120D037BFF7A137922754CB3
:1011B60000754D087D097C00120D031213293009B4
:0B11C600FDC209121397120B6880F3A2
:03000B0002142AB2
:10142A00C0E0758CB0758A3C0522E522641470040C
:07143A00F522D209D0E032D7
:100FEE00021166E493A3F8E493A34003F68001F2A2
:100FFE0008DFF48029E493A3F85407240CC8C33304
:10100E00C4540F4420C8834004F456800146F6DFD2
:10101E00E4800B01020408102040809013EEE47E61
:10102E00019360BCA3FF543F30E509541FFEE493C7
:10103E00A360010ECF54C025E060A840B8E493A38E
:10104E00FAE493A3F8E493A3C8C582C8CAC583CAB9
:10105E00F0A3C8C582C8CAC583CADFE9DEE780BE71
:01140C0000DF
:100E6100BB010689828A83E0225002E722BBFE028F
:090E7100E32289828A83E49322C2
:100E7A00BB010CE58229F582E5833AF583E022502D
:100E8A0006E92582F8E622BBFE06E92582F8E22277
:0D0E9A00E58229F582E5833AF583E4932291
:100EA700EF8DF0A4A8F0CF8CF0A428CE8DF0A42E5F
:020EB700FE2219
:100EB900EB9FF5F0EA9E42F0E99D42F0EC6480C8B0
:060EC90064809845F02250
:100ECF00F5F0C582A4C582C5F0C583A42583F5833B
:010EDF0022F0
:10080C00E556244AF8E60556227847300702784A1E
:10081C00E475F001120EF2020E612000EB7F2ED275
:10082C00008018EF540F2490D43440D4FF30040BC4
:10083C00EF24BFB41A0050032461FFE55760021582
:10084C0057055AE55A7002055930070D7847E4757B
:10085C00F001120EF2EF020EE00213C77403D2077E
:10086C008003E4C207F5568B478A488949E4F5575B
:10087C00F559F55AE55760077F2012084780F57542
:10088C0058FFC201C200C202C203C205C206C2089E
:10089C00120815FF700D3007057F00120858AF5A6B
:1008AC00AE5922B4255FC2D5C204120815FF24D05C
:1008BC00B40A00501A75F00A785730D50508B6FFFF
:1008CC000106C6A426F620D5047002D20380D924D2
:1008DC00CFB41A00EF5004C2E5D204020A58D20178
:1008EC0080C6D20080C0D20280BCD2D580BAD205DC
:1008FC0080B47F201208472002077401B5570040CE
:10090C00F112080CFF120847020880D208D20680A8
:10091C009512080CFB12080CFA12080CF94A4B70D1
:10092C000679297A0B7BFF20022EE557602A7E0080
:10093C008E82758300120E7A60060EEE655870F08A
:10094C00C2D5EBC0E0EAC0E0E9C0E0EE120A9FD0ED
:10095C00E0F9D0E0FAD0E0FB120E61FF60AAEBC028
:10096C00E0EAC0E0E9C0E0120847D0E02401F9D089
:10097C00E03400FAD0E0FBE5580460DCD558D980AF
:10098C00877BFF7A0A799BD202809C79108002794E
:10099C0008C206C2088008D2D5790A8004790AC236
:1009AC00D5E558047002F558E4FAFDFEFF12080C68
:1009BC00FC7B0820011312080CFD7B1030000A127E
:1009CC00080CFE12080CFF7B20EC3382D592D5501C
:1009DC0013C3E43000069FFFE49EFEE42001039D58
:1009EC00FDE49CFCE4CBF8C201EC700CCFCECDCC7A
:1009FC00E824F8F870F38017C3EF33FFEE33FEED05
:100A0C0033FDEC33FCEB33FB994002FB0FD8E9EBE5
:100A1C00300105F8D0E0C448B201C0E00AEC4D4EFC
:100A2C004F78207B0070C2EAB5580040BCC0E01281
:100A3C000AA1D0F0D0E0200104C4C0E0C4B201C0CF
:100A4C00F0120830D0F0D5F0EB020880120F02093A
:100A5C001D5309975808EE4C08EA42099B4F09A30D
:0F0A6C004409A34909034309A955098D46098D7A
:100A7B0045098D470B495008F22D08F62E09192B05
:100A8B0008FA230917200B322A08B2480000091173
:100A9B003F3F3F00790AA2D5200314300509B91056
:100AAB00020404B9080104A2D52006025001042057
:100ABB0002689202B557005034C0E07F2030031912
:100ACB007F30A20272067205500F120AF8C202C2E0
:100ADB0006C205C2087F30800F300503E9C0E01263
:100AEB000847300503D0E0F9D0E0B557CC300517F7
:100AFB007F30B9100C1208477F583004077F78807D
:100B0B0003B908031208473002057F2D0208477FFF
:100B1B00202008F87F2B2006F322920280CF286E2C
:100B2B00756C6C2900D20112080C3001F8C20178E7
:100B3B005730D50108F60208B22D50434958120818
:100B4B000C2403B405004001E4900B4493120838C5
:0D0B5B00743A120838D20375570402099746
:10145700E4FFFE120E61600C0FEF70010E09E970D8
:05146700F20A80EF22F3
:100EE000BB010689828A83F0225002F722BBFE01F1
:020EF000F322EB
:100EF200FAE6FB0808E6F925F0F618E6CA3AF62201
:100F0200D083D082F8E4937012740193700DA3A37E
:100F120093F8740193F5828883E473740293686092
:060F2200EFA3A3A380DF92
:1013C700EFB40A07740D1213D2740A309811A89952
:1013D700B8130CC2983098FDA899C298B811F63086
:0713E70099FDC299F599225E
:00000001FF
