:030000000215F7EF
:0C15F700787FE4F6D8FD75817402163E82
:101AF90044533138423230B2E2CAD4004E6F7720B3
:101B090074656D703A2020202020202020206F430A
:071B19000025372E316600A4
:051C9300013E00C189C3
:0B1C8800EF1FAC0670011E4C70F6222E
:081AAA008E3F8F407F8A7E020F
:101AB200E4FDFCC3ED9FEC9E5015E4FBFA0BBB006A
:0F1AC200010AEB647D4A70F50DBD00010C80E454
:011AD10022F2
:101A5800D2A47F017E00121C88C2A47F507E00128F
:101A68001C88D2A47F0A7E00121C88A2A492007F40
:081A7800147E00121C88D2A4A8
:011A80002243
:021B4700AD07E8
:101B4900E4FBEBC39408748094805016C2A4ED138F
:101B590092A47F057E00121C88D2A4EDC313FD0B4D
:021B690080E01A
:011B6B002257
:101AD200E4FBEBC39408748094805018C2A4EDC355
:101AE20013FDD2A430A4034305807F057E00121C9F
:061AF200880B80DEAF0549
:011AF80022CB
:1019C500121A587FCC121B477F44121B477F327E69
:1019D50000121C88121A587FCC121B477FBE121B9F
:1019E50047C2AF121AD2AA07121AD2D2AFEFFEAD72
:0319F50002EDFF01
:0119F80022CC
:10178D0012198F7BFF7A1A79F9752700752804E4F1
:10179D00FDFC1213167BFF7A1B7905E4F527F5285E
:1017AD007D03FC121316121A581219C5121AAA1219
:1017BD0019C5121AAA1219C58E3F8F407525FF75CE
:1017CD00261B75271AAC3FAD40E412091FE4FBFA46
:1017DD007980783D1208148F2B8E2A8D298C287BC9
:1017ED00007A007943120F037B007A007943752745
:0D17FD000075280A7D037C0012131680B8C9
:1000030000000000000000000000000000000000ED
:10001300000000183C3C3C181800181800000000B1
:10002300000000666666000000000000000000009B
:1000330000000036367F3636367F36360000000045
:100043000018183C666030180C06663C181800004F
:10005300000070D8DA760C18306E5B1B0E000000BF
:10006300000000386C6C38606F66663B000000006F
:100073000000001818180000000000000000000035
:100083000000000C1818303030303018180C000005
:100093000000003018180C0C0C0C0C181830000061
:1000A3000000000000361C7F1C360000000000002A
:1000B300000000000018187E18180000000000005F
:1000C300000000000000000000001C1C0C180000D1
:1000D300000000000000007E00000000000000009F
:1000E300000000000000000000001C1C00000000D5
:1000F30000000006060C0C18183030606000000089
:100103000000001E333737333B3B331E0000000033
:100113000000000C1C7C0C0C0C0C0C0C00000000F0
:100123000000003C6666060C1830607E000000008C
:100133000000003C6666061C0666663C0000000084
:100143000000003030363636667F060600000000B9
:100153000000007E6060607C06060C7800000000F2
:100163000000001C18307C666666663C00000000D8
:100173000000007E060C0C18183030300000000020
:100183000000003C6666763C6E66663C000000003C
:100193000000003C666666663E0C183800000000EE
:1001A30000000000001C1C0000001C1C00000000DC
:1001B30000000000001C1C0000001C1C0C180000A8
:1001C300000000060C18306030180C060000000018
:1001D3000000000000007E007E0000000000000020
:1001E3000000006030180C060C183060000000009E
:1001F3000000003C66660C18180018180000000088
:100203000000007EC3C3CFDBDBCFC07F0000000054
:10021300000000183C6666667E66666600000000A5
:100223000000007C6666667C6666667C00000000F3
:100233000000003C666660606066663C000000008B
:10024300000000786C66666666666C7800000000E5
:100253000000007E6060607C6060607E00000000E3
:100263000000007E6060607C6066663E0000000007
:100273000000003C666660606E66663E000000003B
:10028300000000666666667E6666666600000000BD
:100293000000003C181818181818183C000000003B
:1002A30000000006060606060666663C000000001F
:1002B30000000066666C6C786C6C6666000000007B
:1002C30000000060606060606060607E00000000AD
:1002D3000000006363776B6B6B6363630000000074
:1002E3000000006363737B6F676363630000000058
:1002F3000000003C666666666666663C00000000B9
:100303000000007C6666667C606060600000000040
:100313000000003C666666666666663C0C06000086
:100323000000007C6666667C6C6666660000000002
:100333000000003C666030180C06663C00000000BC
:100343000000007E1818181818181818000000006C
:1003530000000066666666666666663C000000002E
:100363006666663C0000000066663C1800000000FC
:100373000000006363636B6B6B363636000000006E
:1003830000000066663418182C66666600000000DC
:10039300000000666666663C181818180000000026
:1003A3000000007E06060C183060607E000000002E
:1003B3000000003C303030303030303030303C3CA6
:1003C3000000006060303018180C0C0606000000B6
:1003D3000000003C0C0C0C0C0C0C0C0C0C0C3C3CEE
:1003E30000183C6600000000000000000000000050
:1003F3000000000000000000000000000000FFFFFC
:100403000038180000000000000000000000000099
:1004130000000000003C06063E66663E0000000049
:1004230000000060607C66666666667C0000000013
:1004330000000000003C66606060663C0000000055
:1004430000000006063E66666666663E0000000023
:1004530000000000003C66666666663E0000000021
:100463000000001E3030307E00000000000000005D
:1004730000000000003E66666666663E06067C7CFB
:1004830000000060607C66666666666600000000C9
:1004930000001818007818181818187E00000000BB
:1004A30000000C0C003C0C0C0C0C0C0C0C0C7878A5
:1004B300000000606066666C786C66660000000091
:1004C30000000078181818181818187E000000008B
:1004D30000000000007E6B6B6B6B6B630000000021
:1004E30000000000007C6666666666660000000029
:1004F30000000000003C66666666663C0000000083
:1005030000000000007C66666666667C6060606072
:1005130000000000003E66666666663E0606060646
:100523000000000000666E70606060600000000004
:1005330000000000003E60603C06067C00000000F6
:1005430000000030307E30303030301E00000000BC
:1005530000000000006666666666663E00000000F6
:10056300000000000066666666663C180000000036
:100573000000000000636B6B6B6B363600000000FD
:10058300000000000066663C183C66660000000040
:1005930000000000006666666666663C0C18F0F0B4
:1005A30000000000007E060C1830607E0000000092
:1005B300000000001818183060301818180C0000DC
:1005C30000000018181818181818181818181818F0
:1005D300000000301818180C060C1818183000000A
:1005E30000000000000071DB8E000000000000002E
:1005F300000000000000000000001C1C00000000C0
:10060300A87D00007FFC7FFC7FFC7FFC7FFC7FFCE0
:100613007FFC7FFC7FFC7FFC7FFC7FFC7FFC00007A
:100623000000D2BA4040202027FE09208920527CB6
:10063300524416A82B982250E220223022502288BE
:10064300230E2204BEA700000FF008100FF00810BD
:100653000FF0081000007E7E42427E7E42424242FC
:100663007E7E42420000CFD400001FF010101FF026
:1006730010101FF0044004404448244814501460F0
:100683000440FFFE00000000CABE00001FF8000087
:10069300000000007FFE010001001120111021085D
:1006A300410C8104010005000200B2E2400227C2AE
:1006B30024428452455255521552255225522552F1
:1006C300C552410242824242444A4804CAD40020ED
:1006D30040282024302427FE0020E02027E021208A
:1006E30021102110210A29CA360620020000C6C1A2
:1006F3003FFC200420043FFC241022202FFC222056
:1007030022203FFE22202220442044208820102043
:10071300C4BB0440FFFE04401FF010101FF0101074
:100723001FF00200FFFE09101FE82926C9240960F3
:100733000100B7D608800C80084010201030201824
:10074300400E9FE40420042004200420082010A06D
:1007530020404000B1E620901088FEFE008446C68B
:100763002AA8FE8012FE10907C90117E2110221088
:10077300421084100810C2CA020001007FFE41002B
:10078300222817D004801110224847C40120FEFEFE
:100793000100010001000100C4EA08800FFC108081
:1007A300108020804FF88880088008800880FFFE32
:1007B30000800080008000800080D4C207F0041015
:1007C3000410041007F004100410041007F00410C0
:1007D300081008101010205040200000C8D5000059
:1007E3001FF010101010101010101FF01010101028
:1007F3001010101010101FF0101000000000C0F9AE
:10080300A4B0999282F880908883C6A1868EBF7F18
:01081300FFE5
:101A8100E4FEEEC39F5021E4FDEDC394C87480943D
:101A9100805012E4FCECC394A57480948050030C34
:081AA10080F30D80E40E80DAF1
:011AA900221A
:101BB500E4FDFCC3ED9FEC9E5016E4FBEBC3947172
:101BC5007480948050030B80F30DBD00010C80E3FD
:011BD50022ED
:1019F900EB60047E0080027EFFAB06EF247060116D
:101A090024F0601224F0601324307013ED6BF5801C
:101A190022ED6BF59022ED6BF5A022ED6BF5B0226E
:1018D800EF2470601824F0602024F0602824307011
:1018E8002FEDF45580FFE5806D4FF58022EDF4551E
:1018F80090FFE5906D4FF59022EDF455A0FFE5A01F
:101908006D4FF5A022EDF455B0FFE5B06D4FF5B081
:0119180022AC
:10191900EF2470601724F0601E24F06025243070D5
:101929002CE5805D60037F01227F0022E5905D60E8
:10193900037F01227F0022E5A05D60037F01227FF2
:101949000022E5B05D60037F01227F00227F002233
:101BD600EF2470600F24F0600E24F0600D24307046
:101BE6000CAF8022AF9022AFA022AFB0227F00229E
:041683008F088D0936
:10168700E4F50A780B7C00FD7BFF7A087901FE7F81
:1016970013120DACAF09D3EF942F748094804018C8
:1016A700E50924D0F50AD3EF944074809480401E56
:1016B70074F9250AF50A8016E50924D26008047032
:1016C7000A750A108008750A118003750A12E50861
:1016D7002470601524F0601A24F0601F24307023F2
:1016E700740B250AF8E6F58022740B250AF8E6F54F
:1016F7009022740B250AF8E6F5A022740B250AF848
:03170700E6F5B054
:01170A0022BC
:101B91008B5F85626CAB61121C5E7F077E00121B3E
:101BA100B5856370AB61AD60AF5F121C6C7F077E62
:041BB10000021BB55E
:0E1C5E00AC037B011219F9AF04AD6C021683C2
:0E1C6C00AC037B011219F9AF04AD70021683B0
:101959008F718D72E50024FE601204701F8B6CABD1
:10196900727D01AF71121C5E75000222857470AB25
:10197900727D02AF71121C6C75000122E4FB7DFFC0
:06198900AF711219F922F2
:041B6C00AD53AF5274
:101B7000AE07AC03AA05E5687006FB7DFF0219F904
:101B8000AF06AD047B011219F9AF02AD67121683DF
:011B90002232
:101474008F528D538B548A558956E50024FE602D76
:1014840014604414605B1460721470030215192410
:10149400056003021533855767AB54AA55A9561244
:1014A4000DD2F5687B01121B6C750002228558670A
:1014B400AB54AA55A956900001120DEBF5687B02B6
:1014C400121B6C75000322855967AB54AA55A956A3
:1014D400900002120DEBF5687B04121B6C7500047E
:1014E40022855A67AB54AA55A956900003120DEBF6
:1014F400F5687B08121B6C75000522855B67AB548D
:10150400AA55A956900004120DEBF5687B10121B26
:101514006C75000622855C67AB54AA55A9569000E9
:1015240005120DEBF5687B20121B6C75000122E49B
:09153400FB7DFFAF521219F922F0
:021A2900AA070A
:101A2B007B017DFF1219F9121BD6A907E9F4601986
:101A3B007F147E00121BB5AF02121BD6EFF470F7AA
:0C1A4B00AF027B017DFF1219F9E9F4FFE6
:011A5700226C
:101C13007590FFD2A0C2A3AF907E00D2A353070357
:051C2300EF640370EB0B
:011C28002299
:101C3E00AD07AC06121C13C2A08D90C2A2D2A22276
:101C4E00AD07AC06121C13D2A08D90C2A2D2A22256
:0E1C7A00AB05AA04121C3EAF03AE02021C4EC4
:081BF600FD7C007B247A00FE57
:101BFE008D828C83121C3EAF82AE83121C3EAF03CD
:051C0E00AE02021C4EB5
:101880007B247A00E4FDFCFFFE121BFE7FB07E008D
:10189000121C4EE4F525F524F523F522E4FF7E50D5
:1018A000FDFCAB25AA24A923A822C3120E4A50216D
:1018B000E4FFFE121C3EE4FAF9F8E5252401F525C3
:1018C000EA3524F524E93523F523E83522F522808D
:0818D000CB7FB27E00021C4E2A
:10198F00C2A1D2A0D2A2D2A37F907E00121C4E7B06
:10199F00427A00E4FDFCFFFE121BFE0BE4FDFC7F10
:1019AF0014FE121BFE7F807E00121C4E7F987E005D
:0619BF00121C4E0218800C
:08153D008A328B338D828C830E
:101545007538FF753906753A037C007DA0120E2AA1
:10155500EF2582F537EE3583F536E4F534F535E5D7
:1015650036AF37121BF6AE32AF337C007D22120E3A
:101575002AAB38E53A2FF9E5393EFAE92402F9E4D0
:101585003AFAE53525E0FFE53433FEE92FF9EA3E81
:10159500FA120DD2FF7E007DC0121C7AAE32AF3337
:1015A5007C007D22120E2AAB38E53A2FF9E5393E4B
:1015B500FAE53525E0FFE53433FEEF2403FFE43E8D
:1015C500FEE92FF9EA3EFA120DD2FF7E007DC41224
:1015D5001C7A74142537F537E43536F5360535E5C7
:1015E5003570020534C39410E53494005003021598
:0115F5006491
:0115F60022D2
:08180A008A328B338D828C833E
:101812007C007DA0120E2AEF2582F537EE3583F586
:1018220036E4F534F535E536AF37121BF6E533C449
:10183200F8540FC868FFE532C454F048FE74032F11
:10184200F58274003EF583E5822535F582E5833520
:1018520034F583E493FF3395E0FE7DC07C00121CD7
:101862007A74142537F537E43536F5360535E5351E
:0D18720070020534C39410E534940040A9C1
:01187F002246
:06170B008B328A338934A1
:10171100E4F535F5367537FF753806753903AB379E
:10172100AA38A9398536828535837422120E601252
:101731000DEBFFD3948074809480404CAB32AA337C
:10174100A934120DD26F702FAE35AF36FC7D221247
:101751000E2AAB37E5392FF9E5383EFA9000011230
:101761000DEBFFAB32AA33A934900001120DEBB59A
:101771000705AE35AF36220536E53670020535D39D
:0B178100940EE53594004096E4FEFF56
:01178C00223A
:0A1316008B228A2389248C258D2662
:10132000E4F52DF52EF52FF530F531752FFF7530DD
:1013300006753103F529121C298F2AE529C3952A40
:101340004003021473AB22AA23A924120DD2D39412
:1013500080748094804070E5262402FFE43525FEE9
:10136000D3EF9410EE94004009E4F525F526F52717
:10137000F528E5282402FFE43527FED3EF9414EE88
:101380009400401074022526F526E43525F525E461
:10139000F527F52812170B8E2B8F2CAB2CAA2BAD13
:1013A00028AC27AF26AE2512153D74022528F52856
:1013B000E43527F52774022524F524E43523F523A5
:1013C0000529052902133BAB22AA23A924120DD219
:1013D000FFB40D2474022526F526E43525F525E510
:1013E000262402FDE43525FCC3ED9410EC94004066
:1013F00072E4F525F526806BEFB40A08E4F527F5CD
:1014000028048061E5262401FFE43525FED3EF940E
:1014100010EE94004009E4F525F526F527F528E5BA
:10142000282401FFE43527FED3EF9414EE94004006
:101430001074022526F526E43525F525E4F527F573
:1014400028120DD224E0F52CE434FFF52BAB2CFA56
:10145000AD28AC27AF26AE2512180A0528E528705E
:1014600002052774012524F524E43523F5230529F5
:0314700002133B29
:011473002256
:10081400EC4D6011E8497017ED33EC3304600DE4DE
:10082400FCFFFEFD22E933E8330470F802098D125F
:10083400095858046009E4CC248150062850090260
:100844000997284003020994C0E0EB4A7044B98038
:1008540006D0E0FB020983EF4E701CBD8008EBFF5D
:10086400EAFEE9FD80EBE98DF0A4FEE5F00208FD67
:10087400E9CDF9EAFEEBFFEF89F0A4FCE5F0CE89BF
:10088400F0A42EFFE435F0CD89F0A42DFEE435F07C
:100894008067EF4E7005BD80D780C3EF8BF0A4ACAA
:1008A400F0EE8BF0A42CFCE435F0F8EF8AF0A42CE5
:1008B400E5F038FCE433CB8DF0A42CFCE5F03BF8F8
:1008C400EE8AF0A42CFCE5F038F8E433CF89F0A4E8
:1008D4002CFCE5F038CF3400CE89F0A42FFFE5F0EE
:1008E4003EFEE433C98DF0A42EFEE5F039CD8AF046
:1008F400A42FFFE5F03EFEE43DFD33D0E0FB5007BE
:100904000BBB000F020997EC2CFCEF33FFEE33FE18
:06091400ED33FD02096F46
:10091A0075F020800E75F010800575F0087D007E58
:10092A00007F003392D530D503120E3CEC334010D1
:10093A00EF33FFEE33FEED33FDEC33FCD5F0ED2261
:0E094A00E5F0247EA2D513CC92E7CDCEFF229D
:100EA700E5392425F8E60539227822300702782526
:100EB700E475F001120E71020DD22000EB7F2ED2E5
:100EC700008018EF540F2490D43440D4FF30040B23
:100ED700EF24BFB41A0050032461FFE53A600215FE
:100EE7003A053DE53D7002053C30070D7822E47573
:100EF700F001120E71EF020E18021B207403D207C5
:100F07008003E4C207F5398B228A238924E4F53A62
:100F1700F53CF53DE53A60077F20120EE280F57556
:100F27003BFFC201C200C202C203C205C206C20819
:100F3700120EB0FF700D3007057F00120EF3AF3DA4
:100F4700AE3C22B4255FC2D5C204120EB0FF24D036
:100F5700B40A00501A75F00A783A30D50508B6FF7A
:100F67000106C6A426F620D5047002D20380D92430
:100F7700CFB41A00EF5004C2E5D2040211E0D20147
:100F870080C6D20080C0D20280BCD2D580BAD2053A
:100F970080B47F20120EE22002077401B53A0040A8
:100FA700F1120EA7FF120EE2020F1BD208D2068023
:100FB70095120EA7FB120EA7FA120EA7F94A4B704D
:100FC7000679D77A127BFF20022EE53A602A7E0047
:100FD7008E82758300120DEB60060EEE653B70F096
:100FE700C2D5EBC0E0EAC0E0E9C0E0EE121240D0A3
:100FF700E0F9D0E0FAD0E0FB120DD2FF60AAEBC017
:10100700E0EAC0E0E9C0E0120EE2D0E02401F9D046
:10101700E03400FAD0E0FBE53B0460DCD53BD98047
:1010270087D20280A212122360F7E53B70010412F7
:1010370009A2A93B600DE53B600914F53B1212CAF2
:10104700EF60F3EA30E702F404C3995077EAF42536
:101057003B0430E701E404F53B800D12122360C125
:10106700EA053B253B1209A2EA7838F630E701E4A6
:10107700253B04D53B0420050114121240E4C0E0CF
:101087001212CA7838E6601320E70714F6120ECA60
:10109700802204F6D0E014C0E07F00120ECAE53BC0
:1010A7006007120EC1153B800B300503120EC1D02D
:1010B700E0020F1BD0E00480C512122360A0E53BBD
:1010C700041209A27838EAF6E53B2005026001041C
:0510D700240412124088
:1010DC0074FF04C0E01212CA120ECAE53B200502CE
:1010EC006003120EC1D0E0B53BE87F45120ED478F8
:1010FC0038E67F2B30E7047F2DF404C0E0120EE2BB
:10110C00D0E075F00A84C0F0120ECBD0E0120ECBFA
:10111C00020F1B791080027908C206C2088008D21F
:10112C00D5790A8004790AC2D5E53B047002F53BF7
:10113C00E4FAFDFEFF120EA7FC7B08200113120E31
:10114C00A7FD7B1030000A120EA7FE120EA7FF7B24
:10115C0020EC3382D592D55013C3E43000069FFFA8
:10116C00E49EFEE42001039DFDE49CFCE4CBF8C26C
:10117C0001EC700CCFCECDCCE824F8F870F38017CE
:10118C00C3EF33FFEE33FEED33FDEC33FCEB33FBFF
:10119C00994002FB0FD8E9EB300105F8D0E0C448C8
:1011AC00B201C0E00AEC4D4E4F78207B0070C2EAD1
:1011BC00B53B0040BCC0E0121242D0F0D0E02001A0
:1011CC0004C4C0E0C4B201C0F0120ECBD0F0D5F014
:1011DC00EB020F1B120E810FB853111F580F894CC5
:1011EC000F854211234F112B44112B490F9E431194
:1011FC00315510624610C045102C4712F7500F8D18
:10120C002D0F912E0FB42B0F95230FB22012E02A25
:10121C000F4D4800000FACE53BB4FF03753B0612C5
:10122C000EA7FC120EA7FD120EA7FE120EA7FF783A
:10123C00310209D1790AA2D5200314300509B9105D
:10124C00020404B9080104A2D520060250010420AE
:10125C0002689202B53A005034C0E07F2030031986
:10126C007F30A20272067205500F121299C202C28E
:10127C0006C205C2087F30800F300503E9C0E012BA
:10128C000EE2300503D0E0F9D0E0B53ACC300517CA
:10129C007F30B9100C120EE27F583004077F788033
:1012AC0003B90803120EE23002057F2D020EE27F15
:1012BC00202008F87F2B2006F322920280CF7F009B
:1012CC00B4070050052431F8E6FF22286E756C6CCB
:1012DC002900D201120EA73001F8C201783A30D59C
:1012EC000108F6020F4D2D50434958120EA7240346
:1012FC00B405004001E49012F293120ED3743A122A
:0A130C000ED3D203753A0402111F3C
:10095800E9D2E7C933E833F892D5EDD2E7CD33ECE5
:0709680033FC5002B2D5225E
:10096F00EC30E7100FBF000C0EBE00080DBD0004E9
:10097F000BEB6014A2D5EB13FCED92E7FD2274FF95
:10098F00FCFDFEFF22E480F8A2D574FF13FC7D80EE
:03099F00E480EF02
:1009A200F920E72824F950037907E4F42402FB181C
:1009B200DBFDE624FB5014E9600DE4F618E604F6CC
:0F09C200B40A08E4F6D9F57401F60A22C2D52268
:1009D100ED33EC3392D5FA602AB4FF33EDC2E77BF5
:1009E100FF60067A0979F6E4227A0979FF20D504B5
:1009F1007A0979FA224E614E002B494E46002D4963
:100A01004E4600E47A08F608DAFC7B00740722E817
:100A1100C0E0ECC0E0EDC0E0EEC0E0EFC0E0EA75A0
:100A2100F010A4CAABF075F04DA42BFBE435F0FC3B
:100A3100EA2410FAEB34C5FBEC34D9FCEDC2E7FF34
:100A410075F056A4F42411C5F0F434C58FF0A42A2E
:100A5100E5F03BE43CF620E714120C9CD0E0FFD01B
:100A6100E0FED0E0FDD0E0FC120BCF8014F40412C4
:100A71000C9CD0E0FFD0E0FED0E0FDD0E0FC1208FD
:100A810014D0E0F8E6FAEDD2E7CD33EC332482FB63
:100A9100E4C3CF33CFCE33CECD33CD33DBF37B07BE
:100AA10075F00A846004F6081B0AE5F0F6088FF079
:100AB100740AA4FFACF08EF0740AA42CFEACF050C2
:100AC100010C8DF0740AA42CFDE435F0F608DBDE90
:030AD10074072285
:100AD40002098DE86480F8E933E83360110460F0BA
:100AE400ED33EC337009E8FCE9FDEAFEEBFF220488
:100AF40060DED3EB9FEA9EE99DE8C2E78CF0C2F783
:100B040095F0400CE8CCF8E9CDF9EACEFAEBCFFB4E
:100B140012095885D0F05804700320D5B3E8047046
:100B2400075002B2D502099792D5EC0460F7E4CCE1
:100B3400C0E0C398F8603B94186008400DD0E0FB17
:100B440002096FE4FBFAC9FC8028E830E406E4C932
:100B5400FBE4CAFCE830E305E4C9CACBFCE854076B
:100B64006010F8C3E913F9EA13FAEB13FBEC13FC76
:100B7400D8F130F52FC3E49CFCEF9BFFEE9AFEED19
:100B840099FDD0E0FBEF4E4D4C701222DB030209BD
:100B940094EC2CFCEF33FFEE33FEED33FDED30E748
:100BA400EB02096FEF2BFFEE3AFEED39FDD0E0FBCF
:100BB40050130BBB0003020997ED13FDEE13FEEF78
:080BC40013FFEC13FC02096FA2
:100BCC00020997EC5D046005E85904700302098D75
:100BDC00120958580460F6EC4860F2EC7004FDFE03
:100BEC00FF22C860DB2481C85009C39860025006FC
:100BFC000209949850CAF582E9294B4A7005AB82D8
:100C0C0002098375F0007C1A7880C3EF9BEE9AED95
:100C1C0099400DC3EF9BFFEE9AFEED99FDE842F073
:100C2C00DC23ACF0D0E0FFD0E0FED0E0FDAB8220C6
:100C3C00E7101BEB60BAEC2CFCEF33FFEE33FEED50
:100C4C0033FD02096FE803F830E705C0F075F000DA
:100C5C00EF2FFFEE33FEED33FD40B830E7C280AA34
:100C6C003F8000004120000042C80000447A000090
:100C7C00461C400047C35000497424004B18968012
:100C8C004CBEBC205A0E1BCA6753C21C749DC5AE09
:100C9C00FB60065407601C2323120CCAEB5438600B
:100CAC0009120CB6120CC5120814ECF8EDF9EEFA98
:100CBC00EFCB22EB120CC580F1543803241C900CA2
:100CCC006CFE93FC0EEE93FD0EEE930ECE93FF2274
:1016030002178DE493A3F8E493A34003F68001F259
:1016130008DFF48029E493A3F85407240CC8C333E8
:10162300C4540F4420C8834004F456800146F6DFB7
:10163300E4800B0102040810204080901C93E47E98
:10164300019360BCA3FF543F30E509541FFEE493AC
:10165300A360010ECF54C025E060A840B8E493A373
:10166300FAE493A3F8E493A3C8C582C8CAC583CA9E
:10167300F0A3C8C582C8CAC583CADFE9DEE780BE56
:011C9800004B
:100CDC00E709F608DFFA8046E709F208DFFA803EFA
:100CEC0088828C83E709F0A3DFFA8032E309F608E7
:100CFC00DFFA8078E309F208DFFA807088828C834F
:100D0C00E309F0A3DFFA806489828A83E0A3F60802
:100D1C00DFFA805889828A83E0A3F208DFFA804CDC
:100D2C0080D280FA80C680D4806980F280338010B3
:100D3C0080A680EA809A80A880DA80E280CA80331C
:100D4C0089828A83ECFAE493A3C8C582C8CCC58394
:100D5C00CCF0A3C8C582C8CCC583CCDFE9DEE78064
:100D6C000D89828A83E493A3F608DFF9ECFAA9F0E3
:100D7C00EDFB2289828A83ECFAE0A3C8C582C8CC39
:100D8C00C583CCF0A3C8C582C8CCC583CCDFEADE52
:100D9C00E880DB89828A83E493A3F208DFF980CCB4
:100DAC0088F0EF60010E4E60C388F0ED2402B404AD
:100DBC000050B9F582EB2402B4040050AF23234554
:060DCC008223900D2C7340
:100DD200BB010689828A83E0225002E722BBFE021F
:090DE200E32289828A83E4932252
:100DEB00BB010CE58229F582E5833AF583E02250BD
:100DFB0006E92582F8E622BBFE06E92582F8E22207
:0D0E0B00E58229F582E5833AF583E4932220
:100E1800BB010689828A83F0225002F722BBFE01B9
:020E2800F322B3
:100E2A00EF8DF0A4A8F0CF8CF0A428CE8DF0A42EDC
:020E3A00FE2296
:0E0E3C00C3E49FFFE49EFEE49DFDE49CFC22C7
:100E4A00EB9FF5F0EA9E42F0E99D42F0EC6480C81F
:060E5A0064809845F022BF
:100E6000F5F0C582A4C582C5F0C583A42583F583AA
:010E7000225F
:100E7100FAE6FB0808E6F925F0F618E6CA3AF62282
:100E8100D083D082F8E4937012740193700DA3A300
:100E910093F8740193F5828883E473740293686014
:060EA100EFA3A3A380DF14
:101B2000EFB40A07740D121B2B740A309811A89990
:101B3000B8130CC2983098FDA899C298B811F63025
:071B400099FDC299F59922FD
:101C2900E4FFFE120DD2600C0FEF70010E09E9708E
:051C3900F20A80EF2219
:00000001FF
