:03000000021BEBF5
:0C1BEB00787FE4F6D8FD758165021C329D
:102232000001010203030404050606070808090950
:1021AB00EF1FAA0670011E4A6013E4FCFDC3ED94F9
:0D21BB007DEC940050EA0DBD00010C80F099
:0121C80022F4
:10218C00C2A77F647E00EF1F70011EEF4E70F7D266
:0E219C00A77E007F04EF1F70011EEF4E70F74C
:0121AA002212
:1021E00020A7FDA2A7B340FB7F047E00EF1F700174
:0521F0001EEF4E70F728
:0121F50022C7
:10212400C2A70FBF0000D2A70FBF00000FBF00005F
:10213400A2A792007E007F08EF1F70011EEF4E7071
:03214400F7A200FF
:012147002275
:10214800E4FDFBFA122124E433FFC4333333548013
:10215800FEEDC3134EFD0BBB00010AEB64084A7089
:03216800E3AF05DD
:01216B002251
:0F1E640012218C1221E07F017E001221AB7FCC76
:021E7300A907BD
:101E7500E4FFEFC39408748094805044E913920002
:101E8500E9C313F930001BC2A70BBB00000BBB0055
:101E950000D2A77A007B08EB1B70011AEB4A70F79A
:101EA500801BC2A77A007B08EB1B70011AEB4A70F6
:101EB500F7D2A70BBB00010A0BBB00010A0F80B2CA
:011EC50022FA
:08226800121E647F44021E7384
:08227000121E647FBE021E7302
:101D7E001222701221488F471221488F46C20BE55E
:101D8E004654F864F8700F6346FFE547F404F547D0
:101D9E0070020546D20BE547540F90223293FCE4B5
:101DAE00120C677BCD7ACC79CC783D120B46C004F1
:101DBE00C005C006C007E546540F75F010A4FFE538
:101DCE004754F0C4540FFDE5F0FCEF4DFDEC120C42
:101DDE0062D003D002D001D000120A55300B03128C
:021DEE000C4C9B
:011DF00022D0
:10216C00C8D500D2BB00B6FE00C800CBC400CEE57B
:10217C0000C1F9002563256300D0C7C6DA257300BA
:10203E00C10C073F0C07071C030C000E22216C215C
:0B204E006F217221752177217A217D1E
:0400060000000022D4
:101F2100E4FEC2A5C2A6D2A4FDEDC39408748094B8
:101F310080501BEF540164017004D2A68002C2A636
:101F4100D2A5120006C2A5EFC313FF0D80DBE4FD8D
:101F5100EDC39408748094805014EEC313FEC2A59F
:101F610012000630A603430680D2A50D80E2C2A569
:061F7100C2A6C2A4AF06E7
:011F77002247
:101EC600C2A5C2A6D2A4E4FEEEC394087480948090
:101ED600501BEF540164017004D2A68002C2A6D240
:101EE600A5120006C2A5EFC313FF0E80DBE4FEEECB
:101EF600C3940874809480501BED540164017004EF
:101F0600D2A68002C2A6D2A5120006C2A5EDC313B0
:0A1F1600FD0E80DBC2A5C2A6C2A426
:011F2000229E
:10200B00E4FCECC39407748094805026EC25E0FF2D
:10201B00C3748C9FFF743F2CF8E6FE75F00A84C4E2
:10202B0054F0FDEE75F00A84E5F02DFD121EC60C82
:02203B0080D053
:01203D002280
:1020A200E4FCECC39407748094805023EC25E0FF99
:1020B200C3748D9FFF121F21EFC4540F75F00AA441
:0F20C200FEEF540F2EFE743F2CF8A6060C80D3B1
:0120D10022EC
:1014C000AF09EF3395E04F7003D38001C3920C75E1
:1014D00049FF754A21754B80E53F75F00A84243039
:1014E000F54CE53F75F00A84E5F02430F54D7B00BE
:1014F0007A0079301210AD7B007A007930754B009C
:10150000754C027D037C00121854AF09EF3395E04F
:10151000FEEF64024E7003D38001C3920C7549FF45
:10152000754A21754B80E54175F00A842430F54CED
:10153000E54175F00A84E5F02430F54D7B007A0032
:1015400079301210AD7B007A007930754B00754C04
:10155000067D037C00121854AF09EF3395E0FEEFCF
:1015600064034E7003D38001C3920C7549FF754A22
:1015700021754B80E54275F00A842430F54CE54234
:1015800075F00A84E5F02430F54D7B007A0079305F
:101590001210AD7B007A007930754B00754C0A7DD6
:1015A000037C00121854AF09EF3395E0FEEF64049A
:1015B0004E7003D38001C3920C7549FF754A2175A3
:1015C0004B80E54375F00A842430F54CE54375F013
:1015D0000A84E5F02430F54D7B007A007930121052
:1015E000AD7B007A007930754B00754C027D067C2E
:1015F00000121854AF09EF3395E0FEEF64054E700A
:1016000003D38001C3920C7549FF754A21754B8045
:10161000E54475F00A842430F54CE54475F00A84FD
:10162000E5F02430F54D7B007A0079301210AD7B67
:10163000007A007930754B00754C067D067C0012EF
:101640001854AF09EF3395E0FEEF64064E7003D3F4
:101650008001C3920C7549FF754A21754B80E545A1
:1016600075F00A842430F54CE54575F00A84E5F000
:101670002430F54D7B007A0079301210AD7B007A72
:10168000007930754B00754C0A7D067C00121854A9
:101690007549FF754A21754B85E54025E02420F802
:1016A000E6FE08E6AA06754CFF8A4DF54E7B007AE9
:1016B0000079301210AD7B007A007930754B0075DF
:0916C0004C087D097C000218545D
:101FC700CDF2C4EAC0FA0032303030C4EA3039D436
:101FD700C23238C8D5003232CAB13339B7D63030F9
:101FE700C3EB00D0C7C6DAC1F900B5B1C7B0CEC2DE
:101FF700B6C8202020202020202020A1E60025345C
:042007002E31660010
:10205900010800C1890109FF0D0A001F001F1E1F89
:072069001E1F1F1E1F1E1F9A
:09207100E53F24D0FFE43407FE32
:10207A00AB07AA06EB5403700AFC7D64120F91EDBC
:10208A004C700FAE02AF037C017D90120F91ED4CA4
:08209A0070037F01227F002288
:101B4F00E4F562F563F5647565059007D0E53F240C
:101B5F00D0FFE43407FEC3E5829FE5839E501FAF9D
:101B6F0082AE8312207AEF7E0060047F0280027FB4
:101B7F0001EF2563F563EE3562F562A380CFE56370
:101B8F002565FFE5623564FE7C007D07120F918CA1
:101B9F00648D65E4F562F563F583758201C3E582B3
:101BAF009541E58394005013AF82740A2FF8E62510
:101BBF0063F563E43562F562A380E2E5422563F5E0
:101BCF0063E43562F562E5632565FFE5623564FE22
:0B1BDF007C007D07120F91ED04F54023
:011BEA0022D8
:1016C900A907E50924FE606C14700302178A1470D7
:1016D900030217C91470030217F8147003021827BC
:1016E90024066003021853E9FF3395E0FEEF640115
:1016F9004E700DC3E53F9463748094805002053F9A
:10170900BEFF10BFFF0DD3E53F9400748094804065
:1017190002153F122071EF60047F1D80027F1C8F2C
:101729000C740A2541F8E6FFE542D39F50030218DD
:10173900538F4222E9FF3395E0FEEF64014E700DAD
:10174900C3E541940C7480948050020541BEFF109A
:10175900BFFF0DD3E5419401748094804002154187
:10176900122071EF60047F1D80027F1C8F0C740AA8
:101779002541F8E6FFE542D39F50030218538F42F3
:1017890022122071EF60047F1D80027F1C8F0CE9FB
:10179900FF3395E0FEEF64014E700F740A2541F89E
:1017A900E6FDE542C39D50020542BEFF10BFFF0D95
:1017B900D3E54294017480948040021542021B4F84
:1017C900E9FF3395E0FEEF64014E700DC3E54394E4
:1017D900177480948050020543EFF47002EEF470A0
:1017E90069D3E543940074809480405E154322E9EF
:1017F900FF3395E0FEEF64014E700DC3E544943B61
:101809007480948050020544EFF47002EEF4703A4B
:10181900D3E544940074809480402F154422E9FF55
:101829003395E0FEEF64014E700DC3E545943B74BA
:1018390080948050020545BEFF10BFFF0DD3E545DA
:0B18490094007480948040021545223A
:1019B2001220D2758901758CB0758A3CD28CD2A85E
:1019C200D2AF12200B1222687FF47E011221AB7B70
:1019D200FF7A1F79C7754B00754C06E4FDFC12189F
:1019E200547BFF7A1F79CEE4F54BF54C7D03FC1254
:1019F20018547BFF7A1F79DD754B00754C027D060A
:101A02007C001218547BFF7A1F79EA754B00754CE3
:101A1200087D097C001218547BFF7A1F79F1E4F5E6
:101A22004BF54C7D0CFC121854D2A9E4F530F5317B
:101A3200F532F533F534F535F536F537F538F53950
:101A4200F53A3009FDC209E4F508AF09EF3395E034
:101A5200FEBEFF06BFFF031220A21214C0122268AC
:101A6200C20A121D7E8F4F8E4E8D4D8C4C7549FFD2
:101A7200754A20754B057B007A0079301210AD7BD8
:101A8200007A007930754B00754C0A7D0C7C00128F
:041A9200185480AEB6
:03000300021C7765
:101C7700C0E0C0F0C083C082C0D075D000C000C033
:101C870001C002C003C004C005C006C00720B427B6
:101C970030B4FDAF09EF3395E0FEEF64064E7003F5
:101CA7007509FF0509AF09EF3395E0FEEF64014EB3
:101CB7007028750902802320B50730B5FD7F0180A4
:101CC7000820B60A30B6FD7FFF1216C9800C20B770
:101CD7000930B7FD12200B7509FFD007D006D005D4
:101CE700D004D003D002D001D000D0D0D082D0838E
:051CF700D0F0D0E03246
:03000B000221C906
:1021C900C0E0758CB0758A3C0508E5086414700494
:0721D900F508D209D0E03245
:10000E0000000000000000000000000000000000E2
:10001E00000000183C3C3C181800181800000000A6
:10002E000000006666660000000000000000000090
:10003E0000000036367F3636367F3636000000003A
:10004E000018183C666030180C06663C1818000044
:10005E00000070D8DA760C18306E5B1B0E000000B4
:10006E00000000386C6C38606F66663B0000000064
:10007E00000000181818000000000000000000002A
:10008E000000000C1818303030303018180C0000FA
:10009E000000003018180C0C0C0C0C181830000056
:1000AE000000000000361C7F1C360000000000001F
:1000BE00000000000018187E181800000000000054
:1000CE00000000000000000000001C1C0C180000C6
:1000DE00000000000000007E000000000000000094
:1000EE00000000000000000000001C1C00000000CA
:1000FE0000000006060C0C1818303060600000007E
:10010E000000001E333737333B3B331E0000000028
:10011E000000000C1C7C0C0C0C0C0C0C00000000E5
:10012E000000003C6666060C1830607E0000000081
:10013E000000003C6666061C0666663C0000000079
:10014E000000003030363636667F060600000000AE
:10015E000000007E6060607C06060C7800000000E7
:10016E000000001C18307C666666663C00000000CD
:10017E000000007E060C0C18183030300000000015
:10018E000000003C6666763C6E66663C0000000031
:10019E000000003C666666663E0C183800000000E3
:1001AE0000000000001C1C0000001C1C00000000D1
:1001BE0000000000001C1C0000001C1C0C1800009D
:1001CE00000000060C18306030180C06000000000D
:1001DE000000000000007E007E0000000000000015
:1001EE000000006030180C060C1830600000000093
:1001FE000000003C66660C18180018000000000095
:10020E000000007EC3C3CFDBDBCFC07F0000000049
:10021E00000000183C6666667E666666000000009A
:10022E000000007C6666667C6666667C00000000E8
:10023E000000003C666660606066663C0000000080
:10024E00000000786C66666666666C7800000000DA
:10025E000000007E6060607C6060607E00000000D8
:10026E000000007E6060607C6060606000000000E6
:10027E000000003C666660606E66663E0000000030
:10028E00000000666666667E6666666600000000B2
:10029E000000003C181818181818183C0000000030
:1002AE0000000006060606060666663C0000000014
:1002BE0000000066666C6C786C6C66660000000070
:1002CE0000000060606060606060607E00000000A2
:1002DE000000006363776B6B1818000000000000CD
:1002EE000000006363737B6F67636363000000004D
:1002FE000000003C666666666666663C00000000AE
:10030E000000007C6666667C606060600000000035
:10031E000000003C666666666666663C0C0600007B
:10032E000000007C6666667C6C66666600000000F7
:10033E000000003C666030180C06663C00000000B1
:10034E000000007E18181818181818180000000061
:10035E0000000066666666666666663C0000000023
:10036E00000000666666666666663C180000000061
:10037E000000006363636B6B6B3636360000000063
:10038E0000000066663418182C66666600000000D1
:10039E00000000666666663C18181818000000001B
:1003AE000000007E06060C183060607E0000000023
:1003BE000000003C303030303030303030303C3C9B
:1003CE000000006060303018180C0C0606000000AB
:1003DE000000003C0C0C0C0C0C0C0C0C0C0C3C3CE3
:1003EE0000183C6600000000000000000000000045
:1003FE000000000000000000000000000000FFFFF1
:10040E000038180C00000000000000000000000082
:10041E0000000000003C06063E66663E000000003E
:10042E0000000060607C66666666667C0000000008
:10043E0000000000003C66606060663C000000004A
:10044E0000000006063E66666666663E0000000018
:10045E0000000000003C66667E60603C000000000C
:10046E000000001E3030307E303030300000000092
:10047E0000000000003E66666666663E06067C7CF0
:10048E0000000060607C66666666666600000000BE
:10049E0000001818007818181818187E00000000B0
:1004AE0000000C0C003C0C0C0C0C0C0C0C0C78789A
:1004BE00000000606066666C786C66660000000086
:1004CE0000000078181818181818187E0000000080
:1004DE0000000000007E6B6B6B6B6B630000000016
:1004EE0000000000007C666666666666000000001E
:1004FE0000000000003C66666666663C0000000078
:10050E0000000000007C66666666667C6060606067
:10051E0000000000003E66666666663E060606063B
:10052E000000000000666E706060606000000000F9
:10053E0000000000003E60603C06067C00000000EB
:10054E0000000030307E30303030301E00000000B1
:10055E0000000000006666666666663E00000000EB
:10056E00000000000066666666663C18000000002B
:10057E000000000000636B6B6B6B363600000000F2
:10058E00000000000066663C183C66660000000035
:10059E0000000000006666666666663C0C18F0F0A9
:1005AE0000000000007E060C1830607E0000000087
:1005BE000000000C1818183060301818180C0000C5
:1005CE0000000018181818181818181818181818E5
:1005DE00000000301818180C060C181818300000FF
:1005EE0000000000000071DB8E0000000000000023
:1005FE00000000000000000000001C1C00000000B5
:10060E00A1F600007FFC7FFC7FFC7FFC7FFC7FFC63
:10061E007FFC7FFC7FFC7FFC7FFC7FFC7FFC00006F
:10062E000000D2BA4040202027FE09208920527CAB
:10063E00524416A82B982250E220223022502288B3
:10064E00230E2204BEA700000FF008100FF00810B2
:10065E000FF0081000007E7E42427E7E42424242F1
:10066E007E7E42420000CFD400001FF010101FF01B
:10067E0010101FF0044004404448244814501460E5
:10068E000440FFFE00000000CABE00001FF800007C
:10069E00000000007FFE0100010011201110210852
:1006AE00410C8104010005000200B2E2400227C2A3
:1006BE0024428452455255521552255225522552E6
:1006CE00C552410242824242444A4804CAD40020E2
:1006DE0040282024302427FE0020E02027E021207F
:1006EE0021102110210A29CA360620020000C6C197
:1006FE003FFC200420043FFC241022202FFC22204B
:10070E0022203FFE22202220442044208820102038
:10071E00C4BB0440FFFE04401FF010101FF0101069
:10072E001FF00200FFFE09101FE82926C9240960E8
:10073E000100B7D608800C80084010201030201819
:10074E00400E9FE40420042004200420082010A062
:10075E0020404000B1E620901088FEFE008446C680
:10076E002AA8FE8012FE10907C90117E211022107D
:10077E00421084100810C2CA020001007FFE410020
:10078E00222817D004801110224847C40120FFFEF2
:10079E000100010001000100C4EA08000FFC1080F6
:1007AE00108020804FF88880088008800880FFFE27
:1007BE0000800080008000800080D4C207F004100A
:1007CE000410041007F004100410041007F00410B5
:1007DE00081008101010205040200000C8D500004E
:1007EE001FF010101010101010101FF0101010101D
:1007FE001010101010101FF0101000000000CAB1E1
:10080E00000800087C08440845FE440844087C089B
:10081E0044884448444844087C0844080028001092
:10082E00C3EB08201C20F02010A810A4FCA211225B
:10083E0031203A245424542890081010102010C04F
:10084E001300C1F902000100008000800000FFFECD
:10085E0000000000044004200810080810082004BE
:10086E0040040000CEE500007FFC02000200020002
:10087E0002003FF0041004100410041008100810B9
:10088E000810FFFE0000CBC4000000007FFC4444B3
:10089E0044444444444444444844483C5004600462
:1008AE0040047FFC40040000C800000000007FFCF4
:1008BE0000000000000000003FF8000000000000F3
:1008CE0000000000FFFE00000000B6FE0000000069
:1008DE0000003FF8000000000000000000000000D3
:1008EE0000000000FFFE000000000000D2BB000070
:1008FE00000000000000000000000000FFFE0000ED
:10090E000000000000000000000000000000D0C742
:10091E0000001FF010101FF010101FF0010011004A
:10092E001FF8210041001FF0010001007FFC0000B4
:10093E00C6DA2200227C7F44224422443E7C22449A
:10094E0022443E44227C2244FF44048422844114E7
:10095E008208CDF200000000FFFE04000400040037
:10096E0007F00410041008100810101010102010BA
:10097E0040A08040C0FA00003FFE20002080208072
:10098E0020802FFC208420842104210422042204B0
:10099E00440448289010B5B101002108110809102F
:1009AE00092001007FF80008000800083FF8000841
:1009BE00000800087FF80008C7B0101008100820C3
:1009CE00FFFE00003E08224822483E4822482248A8
:1009DE003E48220822082A282410CEC2000023F8FE
:1009EE001208120883F84208420813F8100027FC78
:1009FE00E4A424A424A424A42FFE0000B6C801005D
:100A0E0000803FFE222022203FFC2220222023E0D5
:100A1E0020002FF02410422041C08630380EA1E66F
:100A2E00600091F4960C6C0408041800180018006D
:100A3E0018001800180008000C04060801F0000049
:1021F6007590FFD2A0C2A3AF907E00D2A35307036F
:05220600EF640370EB22
:01220B0022B0
:0E224200AD071221F6C2A08D90C2A2D2A22238
:0E225000AD071221F6D2A08D90C2A2D2A2221A
:0A225E00AC05122242AF0402225028
:10222100AC03AB05122242AF03122242AF040222D9
:01223100505C
:101F78007B24E4FDFF1222217FB0122250E4F549B0
:101F8800F548F547F546E4FF7E50FDFCAB49AA4805
:101F9800A947A846C3120FF45020E4FF122242E4D6
:101FA800FAF9F8E5492401F549EA3548F548E935EB
:0F1FB80047F547E83546F54680CC7FB202225008
:1020D200C2A1D2A0D2A2D2A37F901222507B42E40C
:1020E200FDFF1222217B43E4FD7F141222217F8017
:0B20F2001222507F98122250021F782B
:081A96008A568B578D828C8368
:101A9E00755CFF755D06755E0E7C007DA0120F7F76
:101AAE00EF2582F55BEE3583F55AE4F558F559AF1F
:101ABE005BE55AFD7B24122221AE56AF577C007D8A
:101ACE0022120F7FAB5CE55E2FF9E55D3EFAE9244D
:101ADE0002F9E43AFAE55925E0FFE55833FEE92F1D
:101AEE00F9EA3EFA120F27FF7DC012225EAE56AF04
:101AFE00577C007D22120F7FAB5CE55E2FF9E55D12
:101B0E003EFAE55925E0FFE55833FEEF2403FFE4E6
:101B1E003EFEE92FF9EA3EFA120F27FF7DC412228C
:101B2E005E7414255BF55BE4355AF55A0559E55993
:101B3E0070020558C39410E55894005003021ABD64
:011B4E002274
:081DF1008A568B578D828C830A
:101DF9007C007DA0120F7FEF2582F55BEE3583F520
:101E09005AE4F558F559AF5BE55AFD7B24122221B6
:101E1900E557C4F8540FC868FFE556C454F048FEA6
:101E2900740E2FF58274003EF583E5822559F582FB
:101E3900E5833558F583E493FF7DC012225E74145F
:101E4900255BF55BE4355AF55A0559E559700205E4
:0A1E590058C39410E558940040AC03
:011E6300225C
:061CFC008B568A5789583F
:101D0200E4F559F55A755BFF755C06755D0EAB5BC4
:101D1200AA5CA95D855A82855983742212100A121F
:101D22000F40FFD3948074809480404CAB56AA57E6
:101D3200A958120F276F702FAE59AF5AFC7D22128D
:101D42000F7FAB5BE55D2FF9E55C3EFA9000011277
:101D52000F40FFAB56AA57A958900001120F40B589
:101D62000705AE59AF5A22055AE55A70020559D3F2
:0B1D7200941FE55994004096E4FEFF2A
:011D7D002243
:0A1854008B468A4789488C498D4A6B
:10185E00E4F551F552F553F554F5557553FF75549E
:10186E000675550EF54D12220C8F4EE54DC3954E55
:10187E0040030219B1AB46AA47A948120F27D394C9
:10188E0080748094804070E54A2402FFE43549FE5E
:10189E00D3EF9410EE94004009E4F549F54AF54B68
:1018AE00F54CE54C2402FFE4354BFED3EF9414EED9
:1018BE00940040107402254AF54AE43549F549E48E
:1018CE00F54BF54C121CFC8E4F8F50AB50AA4FAD02
:1018DE004CAC4BAF4AAE49121A967402254CF54CDD
:1018EE00E4354BF54B74022548F548E43547F5478A
:1018FE00054D054D021879AB46AA47A948120F2788
:10190E00FFB40D247402254AF54AE43549F549E53C
:10191E004A2402FDE43549FCC3ED9410EC940040DA
:10192E0072E4F549F54A806BEFB40A08E4F54BF51D
:10193E004C048061E54A2401FFE43549FED3EF945F
:10194E0010EE94004009E4F549F54AF54BF54CE5E7
:10195E004C2401FFE4354BFED3EF9414EE9400407B
:10196E00107402254AF54AE43549F549E4F54BF57C
:10197E004C120F2724E0F550E434FFF54FAB50FA2C
:10198E00AD4CAC4BAF4AAE49121DF1054CE54C7057
:10199E0002054B74012548F548E43547F547054DDA
:0319AE00021879A3
:0119B1002213
:100A4E00020CD0E86480F8E933E83360110460F0FA
:100A5E00ED33EC337009E8FCE9FDEAFEEBFF22040E
:100A6E0060DED3EB9FEA9EE99DE8C2E78CF0C2F709
:100A7E0095F0400CE8CCF8E9CDF9EACEFAEBCFFBD5
:100A8E00120C9B85D0F05804700320D5B3E8047087
:100A9E00075002B2D5020CDA92D5EC0460F7E4CC22
:100AAE00C0E0C398F8603B94186008400DD0E0FB9E
:100ABE00020CB2E4FBFAC9FC8028E830E406E4C973
:100ACE00FBE4CAFCE830E305E4C9CACBFCE85407F2
:100ADE006010F8C3E913F9EA13FAEB13FBEC13FCFD
:100AEE00D8F130F52FC3E49CFCEF9BFFEE9AFEEDA0
:100AFE0099FDD0E0FBEF4E4D4C701222DB03020C41
:100B0E00D7EC2CFCEF33FFEE33FEED33FDED30E78B
:100B1E00EB020CB2EF2BFFEE3AFEED39FDD0E0FB0F
:100B2E0050130BBB0003020CDAED13FDEE13FEEFB8
:080B3E0013FFEC13FC020CB2E2
:100B4600EC4D6011E8497017ED33EC3304600DE4A9
:100B5600FCFFFEFD22E933E8330470F8020CD012E4
:100B66000C9B58046009E4CC2481500628500902E5
:100B76000CDA284003020CD7C0E0EB4A7044B98077
:100B860006D0E0FB020CC6EF4E701CBD8008EBFFE2
:100B9600EAFEE9FD80EBE98DF0A4FEE5F0020C2FFC
:100BA600E9CDF9EAFEEBFFEF89F0A4FCE5F0CE898A
:100BB600F0A42EFFE435F0CD89F0A42DFEE435F047
:100BC6008067EF4E7005BD80D780C3EF8BF0A4AC75
:100BD600F0EE8BF0A42CFCE435F0F8EF8AF0A42CB0
:100BE600E5F038FCE433CB8DF0A42CFCE5F03BF8C3
:100BF600EE8AF0A42CFCE5F038F8E433CF89F0A4B3
:100C06002CFCE5F038CF3400CE89F0A42FFFE5F0B8
:100C16003EFEE433C98DF0A42EFEE5F039CD8AF010
:100C2600A42FFFE5F03EFEE43DFD33D0E0FB500788
:100C36000BBB000F020CDAEC2CFCEF33FFEE33FE9D
:060C4600ED33FD020CB2CB
:100C4C00ED33EC33600A047003BD8004ECB2E7FCB6
:010C5C002275
:100C5D0075F020800E75F010800575F0087D007E12
:100C6D00007F003392D530D503120FE6EC334010E0
:100C7D00EF33FFEE33FEED33FDEC33FCD5F0ED221B
:0E0C8D00E5F0247EA2D513CC92E7CDCEFF2257
:10105100E55D2449F8E6055D2278463007027849C6
:10106100E475F00112101B020F272000EB7F2ED236
:10107100008018EF540F2490D43440D4FF30040B77
:10108100EF24BFB41A0050032461FFE55E6002152E
:101091005E0561E5617002056030070D7846E47513
:1010A100F00112101BEF020F6D0220FD7403D20735
:1010B1008003E4C207F55D8B468A478948E4F55E03
:1010C100F560F561E55E60077F2012108C80F57593
:1010D1005FFFC201C200C202C203C205C206C2084A
:1010E10012105AFF700D3007057F0012109DAF617D
:1010F100AE6022B4255FC2D5C20412105AFF24D0BB
:10110100B40A00501A75F00A785E30D50508B6FFAA
:101111000106C6A426F620D5047002D20380D92484
:10112100CFB41A00EF5004C2E5D20402138AD201EF
:1011310080C6D20080C0D20280BCD2D580BAD2058E
:1011410080B47F2012108C2002077401B55E00402C
:10115100F1121051FF12108C0210C5D208D2068074
:1011610095121051FB121051FA121051F94A4B709D
:101171000679817A147BFF20022EE55E602A7E00CB
:101181008E82758300120F4060060EEE655F70F06F
:10119100C2D5EBC0E0EAC0E0E9C0E0EE1213EAD04C
:1011A100E0F9D0E0FAD0E0FB120F27FF60AAEBC014
:1011B100E0EAC0E0E9C0E012108CD0E02401F9D0EF
:1011C100E03400FAD0E0FBE55F0460DCD55FD98054
:1011D10087D20280A21213CD60F7E55F700104127D
:1011E1000CE5A95F600DE55F600914F55F121474E9
:1011F100EF60F3EA30E702F404C3995077EAF4258B
:101201005F0430E701E404F55F800D1213CD60C186
:10121100EA055F255F120CE5EA785CF630E701E448
:10122100255F04D55F04200501141213EAE4C0E030
:10123100121474785CE6601320E70714F612107438
:10124100802204F6D0E014C0E07F00121074E55F44
:10125100600712106B155F800B30050312106BD005
:10126100E00210C5D0E00480C51213CD60A0E55F97
:1012710004120CE5785CEAF6E55F200502600104E2
:0512810024041213EA31
:1012860074FF04C0E0121474121074E55F200502A6
:10129600600312106BD0E0B55FE87F4512107E78D0
:1012A6005CE67F2B30E7047F2DF404C0E012108C3F
:1012B600D0E075F00A84C0F0121075D0E0121075F7
:1012C6000210C5791080027908C206C2088008D2C9
:1012D600D5790A8004790AC2D5E55F047002F55F04
:1012E600E4FAFDFEFF121051FC7B082001131210D8
:1012F60051FD7B1030000A121051FE121051FF7B77
:1013060020EC3382D592D55013C3E43000069FFFFC
:10131600E49EFEE42001039DFDE49CFCE4CBF8C2C0
:1013260001EC700CCFCECDCCE824F8F870F3801722
:10133600C3EF33FFEE33FEED33FDEC33FCEB33FB53
:10134600994002FB0FD8E9EB300105F8D0E0C4481C
:10135600B201C0E00AEC4D4E4F78207B0070C2EA25
:10136600B55F0040BCC0E01213ECD0F0D0E0200125
:1013760004C4C0E0C4B201C0F0121075D0F0D5F0BC
:10138600EB0210C512102B11625312C95811334CBF
:10139600112F4212CD4F12D54412D549114843128E
:1013A600DB55120C46126A4511D64714A150113767
:1013B6002D113B2E115E2B113F23115C20148A2A1E
:1013C60010F74800001156E55FB4FF03755F06127B
:1013D6001051FC121051FD121051FE121051FF78DF
:1013E60055020D14790AA2D5200314300509B91047
:1013F600020404B9080104A2D52006025001042003
:1014060002689202B55E005034C0E07F20300319B6
:101416007F30A20272067205500F121443C202C236
:1014260006C205C2087F30800F300503E9C0E0120E
:10143600108C300503D0E0F9D0E0B55ECC3005174E
:101446007F30B9100C12108C7F583004077F7880DB
:1014560003B9080312108C3002057F2D02108C7F11
:10146600202008F87F2B2006F322920280CF7F00EF
:10147600B4070050052455F8E6FF22286E756C6CFB
:101486002900D2011210513001F8C201785E30D520
:101496000108F60210F72D50434958121051240343
:1014A600B405004001E490149C9312107D743A1226
:0A14B600107DD203755E040212C916
:100C9B00E9D2E7C933E833F892D5EDD2E7CD33EC9F
:070CAB0033FC5002B2D52218
:100CB200EC30E7100FBF000C0EBE00080DBD0004A3
:100CC2000BEB6014A2D5EB13FCED92E7FD2274FF4F
:100CD200FCFDFEFF22E480F8A2D574FF13FC7D80A8
:030CE200E480EFBC
:100CE500F920E72824F950037907E4F42402FB18D6
:100CF500DBFDE624FB5014E9600DE4F618E604F686
:0F0D0500B40A08E4F6D9F57401F60A22C2D52221
:100D1400ED33EC3392D5FA602AB4FF33EDC2E77BAE
:100D2400FF60067A0D7939E4227A0D794220D504E0
:100D34007A0D793D224E614E002B494E46002D49D5
:100D44004E4600E47A08F608DAFC7B00740722E8D1
:100D5400C0E0ECC0E0EDC0E0EEC0E0EFC0E0EA755A
:100D6400F010A4CAABF075F04DA42BFBE435F0FCF5
:100D7400EA2410FAEB34C5FBEC34D9FCEDC2E7FFEE
:100D840075F056A4F42411C5F0F434C58FF0A42AE8
:100D9400E5F03BE43CF620E714120EE7D0E0FFD088
:100DA400E0FED0E0FDD0E0FC120E1A8014F4041230
:100DB4000EE7D0E0FFD0E0FED0E0FDD0E0FC120B67
:100DC40046D0E0F8E6FAEDD2E7CD33EC332482FBEB
:100DD400E4C3CF33CFCE33CECD33CD33DBF37B0778
:100DE40075F00A846004F6081B0AE5F0F6088FF033
:100DF400740AA4FFACF08EF0740AA42CFEACF0507C
:100E0400010C8DF0740AA42CFDE435F0F608DBDE49
:030E14007407223E
:100E1700020CDAEC5D046005E859047003020CD09B
:100E2700120C9B580460F6EC4860F2EC7004FDFE6F
:100E3700FF22C860DB2481C85009C39860025006AE
:100E4700020CD79850CAF582E9294B4A7005AB8244
:100E5700020CC675F0007C1A7880C3EF9BEE9AED02
:100E670099400DC3EF9BFFEE9AFEED99FDE842F026
:100E7700DC23ACF0D0E0FFD0E0FED0E0FDAB822079
:100E8700E7101BEB60BAEC2CFCEF33FFEE33FEED03
:100E970033FD020CB2E803F830E705C0F075F00047
:100EA700EF2FFFEE33FEED33FD40B830E7C280AAE7
:100EB7003F8000004120000042C80000447A000043
:100EC700461C400047C35000497424004B189680C5
:100ED7004CBEBC205A0E1BCA6753C21C749DC5AEBC
:100EE700FB60065407601C2323120F15EB54386070
:100EF70009120F01120F10120B46ECF8EDF9EEFA7A
:100F0700EFCB22EB120F1080F1543803241C900E04
:100F1700B7FE93FC0EEE93FD0EEE930ECE93FF22DB
:101BF7000219B2E493A3F8E493A34003F68001F239
:101C070008DFF48029E493A3F85407240CC8C333EE
:101C1700C4540F4420C8834004F456800146F6DFBD
:101C2700E4800B010204081020408090203EE47EEF
:101C3700019360BCA3FF543F30E509541FFEE493B2
:101C4700A360010ECF54C025E060A840B8E493A379
:101C5700FAE493A3F8E493A3C8C582C8CAC583CAA4
:101C6700F0A3C8C582C8CAC583CADFE9DEE780BE5C
:01207000006F
:100F2700BB010689828A83E0225002E722BBFE02C8
:090F3700E32289828A83E49322FB
:100F4000BB010CE58229F582E5833AF583E0225066
:100F500006E92582F8E622BBFE06E92582F8E222B0
:0D0F6000E58229F582E5833AF583E49322CA
:100F6D00BB010689828A83F0225002F722BBFE0163
:020F7D00F3225D
:100F7F00EF8DF0A4A8F0CF8CF0A428CE8DF0A42E86
:020F8F00FE2240
:100F9100BC000BBE0029EF8DF084FFADF022E4CC44
:100FA100F875F008EF2FFFEE33FEEC33FCEE9DEC0D
:100FB100984005FCEE9DFE0FD5F0E9E4CEFD22ED53
:100FC100F8F5F0EE8420D21CFEADF075F008EF2F9D
:100FD100FFED33FD4007985006D5F0F222C398FD8E
:050FE1000FD5F0EA222B
:0E0FE600C3E49FFFE49EFEE49DFDE49CFC221C
:100FF400EB9FF5F0EA9E42F0E99D42F0EC6480C874
:0610040064809845F02213
:10100A00F5F0C582A4C582C5F0C583A42583F583FE
:01101A0022B3
:10101B00FAE6FB0808E6F925F0F618E6CA3AF622D6
:10102B00D083D082F8E4937012740193700DA3A354
:10103B0093F8740193F5828883E473740293686068
:06104B00EFA3A3A380DF68
:1020FD00EFB40A07740D122108740A309811A899CB
:10210D00B8130CC2983098FDA899C298B811F63042
:07211D0099FDC299F599221A
:10220C00E4FFFE120F27600C0FEF70010E09E9704E
:05221C00F20A80EF2230
:00000001FF
